{
  "contractName": "PlaneAttack",
  "abi": [
    {
      "anonymous": false,
      "inputs": [
        {
          "indexed": false,
          "internalType": "uint256",
          "name": "planeId",
          "type": "uint256"
        },
        {
          "indexed": false,
          "internalType": "string",
          "name": "name",
          "type": "string"
        },
        {
          "indexed": false,
          "internalType": "uint256",
          "name": "model",
          "type": "uint256"
        }
      ],
      "name": "NewPlane",
      "type": "event"
    },
    {
      "anonymous": false,
      "inputs": [
        {
          "indexed": true,
          "internalType": "address",
          "name": "previousOwner",
          "type": "address"
        },
        {
          "indexed": true,
          "internalType": "address",
          "name": "newOwner",
          "type": "address"
        }
      ],
      "name": "OwnershipTransferred",
      "type": "event"
    },
    {
      "constant": false,
      "inputs": [
        {
          "internalType": "string",
          "name": "_name",
          "type": "string"
        }
      ],
      "name": "createRandomPlane",
      "outputs": [],
      "payable": false,
      "stateMutability": "nonpayable",
      "type": "function"
    },
    {
      "constant": true,
      "inputs": [],
      "name": "owner",
      "outputs": [
        {
          "internalType": "address",
          "name": "",
          "type": "address"
        }
      ],
      "payable": false,
      "stateMutability": "view",
      "type": "function"
    },
    {
      "constant": true,
      "inputs": [
        {
          "internalType": "uint256",
          "name": "",
          "type": "uint256"
        }
      ],
      "name": "planeToOwner",
      "outputs": [
        {
          "internalType": "address",
          "name": "",
          "type": "address"
        }
      ],
      "payable": false,
      "stateMutability": "view",
      "type": "function"
    },
    {
      "constant": true,
      "inputs": [
        {
          "internalType": "uint256",
          "name": "",
          "type": "uint256"
        }
      ],
      "name": "planes",
      "outputs": [
        {
          "internalType": "string",
          "name": "name",
          "type": "string"
        },
        {
          "internalType": "uint256",
          "name": "model",
          "type": "uint256"
        },
        {
          "internalType": "uint16",
          "name": "level",
          "type": "uint16"
        },
        {
          "internalType": "uint32",
          "name": "readyTimeFuel",
          "type": "uint32"
        },
        {
          "internalType": "uint16",
          "name": "fightwinCount",
          "type": "uint16"
        },
        {
          "internalType": "uint16",
          "name": "fightlossCount",
          "type": "uint16"
        },
        {
          "internalType": "uint16",
          "name": "fightCount",
          "type": "uint16"
        }
      ],
      "payable": false,
      "stateMutability": "view",
      "type": "function"
    },
    {
      "constant": false,
      "inputs": [
        {
          "internalType": "address",
          "name": "newOwner",
          "type": "address"
        }
      ],
      "name": "transferOwnership",
      "outputs": [],
      "payable": false,
      "stateMutability": "nonpayable",
      "type": "function"
    },
    {
      "constant": false,
      "inputs": [
        {
          "internalType": "uint256",
          "name": "_planeId",
          "type": "uint256"
        },
        {
          "internalType": "uint256",
          "name": "_targetId",
          "type": "uint256"
        }
      ],
      "name": "attack",
      "outputs": [],
      "payable": false,
      "stateMutability": "nonpayable",
      "type": "function"
    }
  ],
  "bytecode": "0x60806040526010600155600154600a0a600255620151806003556000600755603c600855336000806101000a81548173ffffffffffffffffffffffffffffffffffffffff021916908373ffffffffffffffffffffffffffffffffffffffff160217905550611075806100726000396000f3fe608060405234801561001057600080fd5b50600436106100625760003560e01c80634fbfd07f146100675780637c98309a146101645780638da5cb5b1461021f5780639f4583d214610269578063e1fa7638146102d7578063f2fde38b1461030f575b600080fd5b6100936004803603602081101561007d57600080fd5b8101908080359060200190929190505050610353565b60405180806020018881526020018761ffff1661ffff1681526020018663ffffffff1663ffffffff1681526020018561ffff1661ffff1681526020018461ffff1661ffff1681526020018361ffff1661ffff168152602001828103825289818151815260200191508051906020019080838360005b83811015610123578082015181840152602081019050610108565b50505050905090810190601f1680156101505780820380516001836020036101000a031916815260200191505b509850505050505050505060405180910390f35b61021d6004803603602081101561017a57600080fd5b810190808035906020019064010000000081111561019757600080fd5b8201836020820111156101a957600080fd5b803590602001918460018302840111640100000000831117156101cb57600080fd5b91908080601f016020809104026020016040519081016040528093929190818152602001838380828437600081840152601f19601f820116905080830192505050505050509192919290505050610482565b005b61022761053c565b604051808273ffffffffffffffffffffffffffffffffffffffff1673ffffffffffffffffffffffffffffffffffffffff16815260200191505060405180910390f35b6102956004803603602081101561027f57600080fd5b8101908080359060200190929190505050610561565b604051808273ffffffffffffffffffffffffffffffffffffffff1673ffffffffffffffffffffffffffffffffffffffff16815260200191505060405180910390f35b61030d600480360360408110156102ed57600080fd5b810190808035906020019092919080359060200190929190505050610594565b005b6103516004803603602081101561032557600080fd5b81019080803573ffffffffffffffffffffffffffffffffffffffff1690602001909291905050506107d9565b005b6004818154811061036057fe5b9060005260206000209060030201600091509050806000018054600181600116156101000203166002900480601f01602080910402602001604051908101604052809291908181526020018280546001816001161561010002031660029004801561040c5780601f106103e15761010080835404028352916020019161040c565b820191906000526020600020905b8154815290600101906020018083116103ef57829003601f168201915b5050505050908060010154908060020160009054906101000a900461ffff16908060020160029054906101000a900463ffffffff16908060020160069054906101000a900461ffff16908060020160089054906101000a900461ffff169080600201600a9054906101000a900461ffff16905087565b6000600660003373ffffffffffffffffffffffffffffffffffffffff1673ffffffffffffffffffffffffffffffffffffffff1681526020019081526020016000205414610512576040517f08c379a0000000000000000000000000000000000000000000000000000000008152600401808060200182810382526000815260200160200191505060405180910390fd5b600061051d8261092a565b90506064818161052957fe5b068103905061053882826109b8565b5050565b6000809054906101000a900473ffffffffffffffffffffffffffffffffffffffff1681565b60056020528060005260406000206000915054906101000a900473ffffffffffffffffffffffffffffffffffffffff1681565b813373ffffffffffffffffffffffffffffffffffffffff166005600083815260200190815260200160002060009054906101000a900473ffffffffffffffffffffffffffffffffffffffff1673ffffffffffffffffffffffffffffffffffffffff161461064c576040517f08c379a000000000000000000000000000000000000000000000000000000000815260040180806020018281038252602481526020018061101d6024913960400191505060405180910390fd5b60006004848154811061065b57fe5b9060005260206000209060030201905060006004848154811061067a57fe5b9060005260206000209060030201905060006106966064610cb2565b905060085481116107595782600201600681819054906101000a900461ffff168092919060010191906101000a81548161ffff021916908361ffff1602179055505082600201600081819054906101000a900461ffff168092919060010191906101000a81548161ffff021916908361ffff1602179055505081600201600881819054906101000a900461ffff168092919060010191906101000a81548161ffff021916908361ffff16021790555050610754868360010154610d41565b6107d1565b82600201600881819054906101000a900461ffff168092919060010191906101000a81548161ffff021916908361ffff1602179055505081600201600681819054906101000a900461ffff168092919060010191906101000a81548161ffff021916908361ffff160217905550506107d083610ee8565b5b505050505050565b6000809054906101000a900473ffffffffffffffffffffffffffffffffffffffff1673ffffffffffffffffffffffffffffffffffffffff163373ffffffffffffffffffffffffffffffffffffffff161461083257600080fd5b600073ffffffffffffffffffffffffffffffffffffffff168173ffffffffffffffffffffffffffffffffffffffff16141561086c57600080fd5b8073ffffffffffffffffffffffffffffffffffffffff166000809054906101000a900473ffffffffffffffffffffffffffffffffffffffff1673ffffffffffffffffffffffffffffffffffffffff167f8be0079c531659141344cd1fd0a4f28419497f9722a3daafe3b4186f6b6457e060405160405180910390a3806000806101000a81548173ffffffffffffffffffffffffffffffffffffffff021916908373ffffffffffffffffffffffffffffffffffffffff16021790555050565b600080826040516020018082805190602001908083835b602083106109645780518252602082019150602081019050602083039250610941565b6001836020036101000a0380198251168184511680821785525050505050509050019150506040516020818303038152906040528051906020012060001c905060025481816109af57fe5b06915050919050565b6000600160046040518060e00160405280868152602001858152602001600061ffff168152602001600354420163ffffffff168152602001600061ffff168152602001600061ffff168152602001600061ffff16815250908060018154018082558091505090600182039060005260206000209060030201600090919290919091506000820151816000019080519060200190610a56929190610f55565b506020820151816001015560408201518160020160006101000a81548161ffff021916908361ffff16021790555060608201518160020160026101000a81548163ffffffff021916908363ffffffff16021790555060808201518160020160066101000a81548161ffff021916908361ffff16021790555060a08201518160020160086101000a81548161ffff021916908361ffff16021790555060c082015181600201600a6101000a81548161ffff021916908361ffff1602179055505050039050336005600083815260200190815260200160002060006101000a81548173ffffffffffffffffffffffffffffffffffffffff021916908373ffffffffffffffffffffffffffffffffffffffff160217905550610bbe6001600660003373ffffffffffffffffffffffffffffffffffffffff1673ffffffffffffffffffffffffffffffffffffffff16815260200190815260200160002054610f1290919063ffffffff16565b600660003373ffffffffffffffffffffffffffffffffffffffff1673ffffffffffffffffffffffffffffffffffffffff168152602001908152602001600020819055507fe0219661cea55309eeb7eed6a319955a1c1073b2aec26cba8acffadf12b9a6658184846040518084815260200180602001838152602001828103825284818151815260200191508051906020019080838360005b83811015610c71578082015181840152602081019050610c56565b50505050905090810190601f168015610c9e5780820380516001836020036101000a031916815260200191505b5094505050505060405180910390a1505050565b6000600760008154809291906001019190505550814233600754604051602001808481526020018373ffffffffffffffffffffffffffffffffffffffff1673ffffffffffffffffffffffffffffffffffffffff1660601b815260140182815260200193505050506040516020818303038152906040528051906020012060001c81610d3957fe5b069050919050565b813373ffffffffffffffffffffffffffffffffffffffff166005600083815260200190815260200160002060009054906101000a900473ffffffffffffffffffffffffffffffffffffffff1673ffffffffffffffffffffffffffffffffffffffff1614610df9576040517f08c379a000000000000000000000000000000000000000000000000000000000815260040180806020018281038252602481526020018061101d6024913960400191505060405180910390fd5b600060048481548110610e0857fe5b90600052602060002090600302019050610e2181610f2e565b610e76576040517f08c379a0000000000000000000000000000000000000000000000000000000008152600401808060200182810382526022815260200180610ffb6022913960400191505060405180910390fd5b6002548381610e8157fe5b069250600060028483600101540181610e9657fe5b049050610ed86040518060400160405280600b81526020017f4e6f4e616d65506c616e65000000000000000000000000000000000000000000815250826109b8565b610ee182610ee8565b5050505050565b60035442018160020160026101000a81548163ffffffff021916908363ffffffff16021790555050565b600080828401905083811015610f2457fe5b8091505092915050565b6000428260020160029054906101000a900463ffffffff1663ffffffff1611159050919050565b828054600181600116156101000203166002900490600052602060002090601f016020900481019282601f10610f9657805160ff1916838001178555610fc4565b82800160010185558215610fc4579182015b82811115610fc3578251825591602001919060010190610fa8565b5b509050610fd19190610fd5565b5090565b610ff791905b80821115610ff3576000816000905550600101610fdb565b5090565b9056fe566f747265206176696f6e206e276573742070617320656e636f7265207072c3aa744365747465206176696f6e206e6520766f75732061707061727469656e74207061732021a265627a7a723158209e4a6d15a61b290f6bf8cf928c5a08fbdefb9e799d8d6977e51dfe1894e4d83a64736f6c634300050c0032",
  "source": "pragma solidity ^0.5.11;\n\nimport \"./planefactory.sol\";\nimport \"./planefuel.sol\";\n\ncontract PlaneAttack is PlaneFactory, PlaneFuel{\n\n    uint randNonce = 0;\n    uint attackVictoryProbability = 60;\n\n  function randMod(uint _modulus) internal returns(uint) {\n    randNonce++;\n    return uint(keccak256(abi.encodePacked(now,msg.sender,randNonce))) % _modulus;\n  }\n\n  function attack(uint _planeId, uint _targetId) external ownerOnlyOf(_planeId) {\n    Plane storage myPlane = planes[_planeId];\n    Plane storage enemyPlane = planes[_targetId];\n    uint rand = randMod(100);\n    if (rand <= attackVictoryProbability) {\n      myPlane.fightwinCount++;\n      myPlane.level++;\n      enemyPlane.fightlossCount++;\n      repairAndBuild(_planeId, enemyPlane.model);\n    } else {\n      myPlane.fightlossCount++;\n      enemyPlane.fightwinCount++;\n      _triggerCooldown(myPlane);\n    }\n  }\n}\n",
  "sourcePath": "/Users/bloumy/Desktop/Defi721/contracts/planeattack.sol",
  "compiler": {
    "name": "solc",
    "version": "0.5.12+commit.7709ece9.Emscripten.clang"
  },
  "schemaVersion": "3.0.19",
  "updatedAt": "2019-12-13T20:30:58.618Z",
  "devdoc": {
    "methods": {
      "transferOwnership(address)": {
        "details": "Allows the current owner to transfer control of the contract to a newOwner.",
        "params": {
          "newOwner": "The address to transfer ownership to."
        }
      }
    }
  },
  "userdoc": {
    "methods": {}
  }
}