{
  "contractName": "PlaneOwnership",
  "abi": [
    {
      "anonymous": false,
      "inputs": [
        {
          "indexed": true,
          "internalType": "address",
          "name": "_owner",
          "type": "address"
        },
        {
          "indexed": true,
          "internalType": "address",
          "name": "_approved",
          "type": "address"
        },
        {
          "indexed": false,
          "internalType": "uint256",
          "name": "_tokenId",
          "type": "uint256"
        }
      ],
      "name": "Approval",
      "type": "event"
    },
    {
      "anonymous": false,
      "inputs": [
        {
          "indexed": false,
          "internalType": "uint256",
          "name": "planeId",
          "type": "uint256"
        },
        {
          "indexed": false,
          "internalType": "string",
          "name": "name",
          "type": "string"
        },
        {
          "indexed": false,
          "internalType": "uint256",
          "name": "model",
          "type": "uint256"
        }
      ],
      "name": "NewPlane",
      "type": "event"
    },
    {
      "anonymous": false,
      "inputs": [
        {
          "indexed": true,
          "internalType": "address",
          "name": "previousOwner",
          "type": "address"
        },
        {
          "indexed": true,
          "internalType": "address",
          "name": "newOwner",
          "type": "address"
        }
      ],
      "name": "OwnershipTransferred",
      "type": "event"
    },
    {
      "anonymous": false,
      "inputs": [
        {
          "indexed": true,
          "internalType": "address",
          "name": "_from",
          "type": "address"
        },
        {
          "indexed": true,
          "internalType": "address",
          "name": "_to",
          "type": "address"
        },
        {
          "indexed": false,
          "internalType": "uint256",
          "name": "_tokenId",
          "type": "uint256"
        }
      ],
      "name": "Transfer",
      "type": "event"
    },
    {
      "constant": false,
      "inputs": [
        {
          "internalType": "string",
          "name": "_name",
          "type": "string"
        }
      ],
      "name": "createRandomPlane",
      "outputs": [],
      "payable": false,
      "stateMutability": "nonpayable",
      "type": "function"
    },
    {
      "constant": true,
      "inputs": [],
      "name": "owner",
      "outputs": [
        {
          "internalType": "address",
          "name": "",
          "type": "address"
        }
      ],
      "payable": false,
      "stateMutability": "view",
      "type": "function"
    },
    {
      "constant": true,
      "inputs": [
        {
          "internalType": "uint256",
          "name": "",
          "type": "uint256"
        }
      ],
      "name": "planeToOwner",
      "outputs": [
        {
          "internalType": "address",
          "name": "",
          "type": "address"
        }
      ],
      "payable": false,
      "stateMutability": "view",
      "type": "function"
    },
    {
      "constant": true,
      "inputs": [
        {
          "internalType": "uint256",
          "name": "",
          "type": "uint256"
        }
      ],
      "name": "planes",
      "outputs": [
        {
          "internalType": "string",
          "name": "name",
          "type": "string"
        },
        {
          "internalType": "uint256",
          "name": "model",
          "type": "uint256"
        },
        {
          "internalType": "uint16",
          "name": "level",
          "type": "uint16"
        },
        {
          "internalType": "uint32",
          "name": "readyTimeFuel",
          "type": "uint32"
        },
        {
          "internalType": "uint16",
          "name": "fightwinCount",
          "type": "uint16"
        },
        {
          "internalType": "uint16",
          "name": "fightlossCount",
          "type": "uint16"
        },
        {
          "internalType": "uint16",
          "name": "fightCount",
          "type": "uint16"
        }
      ],
      "payable": false,
      "stateMutability": "view",
      "type": "function"
    },
    {
      "constant": false,
      "inputs": [
        {
          "internalType": "address",
          "name": "newOwner",
          "type": "address"
        }
      ],
      "name": "transferOwnership",
      "outputs": [],
      "payable": false,
      "stateMutability": "nonpayable",
      "type": "function"
    },
    {
      "constant": true,
      "inputs": [
        {
          "internalType": "address",
          "name": "_owner",
          "type": "address"
        }
      ],
      "name": "balanceOf",
      "outputs": [
        {
          "internalType": "uint256",
          "name": "_balance",
          "type": "uint256"
        }
      ],
      "payable": false,
      "stateMutability": "view",
      "type": "function"
    },
    {
      "constant": true,
      "inputs": [
        {
          "internalType": "uint256",
          "name": "_planeId",
          "type": "uint256"
        }
      ],
      "name": "ownerOf",
      "outputs": [
        {
          "internalType": "address",
          "name": "_owner",
          "type": "address"
        }
      ],
      "payable": false,
      "stateMutability": "view",
      "type": "function"
    },
    {
      "constant": false,
      "inputs": [
        {
          "internalType": "address",
          "name": "_to",
          "type": "address"
        },
        {
          "internalType": "uint256",
          "name": "_planeId",
          "type": "uint256"
        }
      ],
      "name": "transfer",
      "outputs": [],
      "payable": false,
      "stateMutability": "nonpayable",
      "type": "function"
    },
    {
      "constant": false,
      "inputs": [
        {
          "internalType": "address",
          "name": "_to",
          "type": "address"
        },
        {
          "internalType": "uint256",
          "name": "_planeId",
          "type": "uint256"
        }
      ],
      "name": "approve",
      "outputs": [],
      "payable": false,
      "stateMutability": "nonpayable",
      "type": "function"
    },
    {
      "constant": false,
      "inputs": [
        {
          "internalType": "uint256",
          "name": "_planeId",
          "type": "uint256"
        }
      ],
      "name": "takeOwnership",
      "outputs": [],
      "payable": false,
      "stateMutability": "nonpayable",
      "type": "function"
    }
  ],
  "bytecode": "0x60806040526010600155662386f26fc1000060025562015180600355600080546001600160a01b03191633179055610ca78061003c6000396000f3fe608060405234801561001057600080fd5b506004361061009e5760003560e01c80638da5cb5b116100665780638da5cb5b146102bb5780639f4583d2146102c3578063a9059cbb146102e0578063b2e6ceeb1461030c578063f2fde38b146103295761009e565b8063095ea7b3146100a35780634fbfd07f146100d15780636352211e146101a457806370a08231146101dd5780637c98309a14610215575b600080fd5b6100cf600480360360408110156100b957600080fd5b506001600160a01b03813516906020013561034f565b005b6100ee600480360360208110156100e757600080fd5b503561040d565b60408051602080820189905261ffff8089169383019390935263ffffffff87166060830152858316608083015284831660a083015291831660c082015260e08082528951908201528851909182916101008301918b019080838360005b8381101561016357818101518382015260200161014b565b50505050905090810190601f1680156101905780820380516001836020036101000a031916815260200191505b509850505050505050505060405180910390f35b6101c1600480360360208110156101ba57600080fd5b50356104fc565b604080516001600160a01b039092168252519081900360200190f35b610203600480360360208110156101f357600080fd5b50356001600160a01b0316610517565b60408051918252519081900360200190f35b6100cf6004803603602081101561022b57600080fd5b81019060208101813564010000000081111561024657600080fd5b82018360208201111561025857600080fd5b8035906020019184600183028401116401000000008311171561027a57600080fd5b91908080601f016020809104026020016040519081016040528093929190818152602001838380828437600092019190915250929550610532945050505050565b6101c161058f565b6101c1600480360360208110156102d957600080fd5b503561059e565b6100cf600480360360408110156102f657600080fd5b506001600160a01b0381351690602001356105b9565b6100cf6004803603602081101561032257600080fd5b5035610620565b6100cf6004803603602081101561033f57600080fd5b50356001600160a01b031661068d565b60008181526005602052604090205481906001600160a01b031633146103a65760405162461bcd60e51b8152600401808060200182810382526024815260200180610c226024913960400191505060405180910390fd5b60008281526007602090815260409182902080546001600160a01b0319166001600160a01b03871690811790915582518581529251909233927f8c5be1e5ebec7d5bd14f71427d1e84f3dd0314c0f7b2291e5b200ac8c7c3b92592918290030190a3505050565b6004818154811061041a57fe5b60009182526020918290206003919091020180546040805160026001841615610100026000190190931692909204601f8101859004850283018501909152808252919350918391908301828280156104b35780601f10610488576101008083540402835291602001916104b3565b820191906000526020600020905b81548152906001019060200180831161049657829003601f168201915b50505050600183015460029093015491929161ffff808216925062010000820463ffffffff169166010000000000008104821691600160401b8204811691600160501b90041687565b6000908152600560205260409020546001600160a01b031690565b6001600160a01b031660009081526006602052604090205490565b336000908152600660205260409020541561056e576040805162461bcd60e51b8152602060048201526000602482015290519081900360640190fd5b600061057982610712565b905060648106900361058b828261079b565b5050565b6000546001600160a01b031681565b6005602052600090815260409020546001600160a01b031681565b60008181526005602052604090205481906001600160a01b031633146106105760405162461bcd60e51b8152600401808060200182810382526024815260200180610c226024913960400191505060405180910390fd5b61061b3384846109eb565b505050565b6000818152600760205260409020546001600160a01b031633146106755760405162461bcd60e51b815260040180806020018281038252602d815260200180610c46602d913960400191505060405180910390fd5b6000610680826104fc565b905061058b8133846109eb565b6000546001600160a01b031633146106a457600080fd5b6001600160a01b0381166106b757600080fd5b600080546040516001600160a01b03808516939216917f8be0079c531659141344cd1fd0a4f28419497f9722a3daafe3b4186f6b6457e091a3600080546001600160a01b0319166001600160a01b0392909216919091179055565b600080826040516020018082805190602001908083835b602083106107485780518252601f199092019160209182019101610729565b6001836020036101000a0380198251168184511680821785525050505050509050019150506040516020818303038152906040528051906020012060001c9050600254818161079357fe5b069392505050565b6040805160e0810182528381526020808201849052600092820183905260038054420163ffffffff1660608401526080830184905260a0830184905260c08301849052600480546001808201808455928752855180519196939593947f8a35acfbc15ff81a39ae7d344fd709f28e8600b4aa8c65c6b64bfe7fe36bd19b9302929092019261082d928492910190610b86565b50602082810151600183810191909155604080850151600290940180546060870151608088015160a089015160c09099015161ffff1990931661ffff9889161765ffffffff000019166201000063ffffffff938416021767ffff00000000000019166601000000000000918916919091021769ffff00000000000000001916600160401b988816989098029790971761ffff60501b1916600160501b969091169590950294909417909355949093036000818152600585528281208054336001600160a01b03199091168117909155815260069094529220549193506109149290610b5e16565b60066000336001600160a01b03166001600160a01b03168152602001908152602001600020819055507fe0219661cea55309eeb7eed6a319955a1c1073b2aec26cba8acffadf12b9a6658184846040518084815260200180602001838152602001828103825284818151815260200191508051906020019080838360005b838110156109aa578181015183820152602001610992565b50505050905090810190601f1680156109d75780820380516001836020036101000a031916815260200191505b5094505050505060405180910390a1505050565b6001600160a01b038316610a3a576040805162461bcd60e51b8152602060048201526011602482015270416472726573736520696e76616c69646560781b604482015290519081900360640190fd5b6001600160a01b038216610a89576040805162461bcd60e51b8152602060048201526011602482015270416472726573736520696e76616c69646560781b604482015290519081900360640190fd5b6001600160a01b038216600090815260066020526040902054610ab390600163ffffffff610b5e16565b6001600160a01b038316600090815260066020526040808220929092553381522054610ae690600163ffffffff610b7416565b33600090815260066020908152604080832093909355838252600581529082902080546001600160a01b0319166001600160a01b03868116918217909255835185815293519093918716927fddf252ad1be2c89b69c2b068fc378daa952ba7f163c4a11628f55a4df523b3ef928290030190a3505050565b600082820183811015610b6d57fe5b9392505050565b600082821115610b8057fe5b50900390565b828054600181600116156101000203166002900490600052602060002090601f016020900481019282601f10610bc757805160ff1916838001178555610bf4565b82800160010185558215610bf4579182015b82811115610bf4578251825591602001919060010190610bd9565b50610c00929150610c04565b5090565b610c1e91905b80821115610c005760008155600101610c0a565b9056fe4365747465206176696f6e206e6520766f75732061707061727469656e74207061732021566f7573206e27657465732070617320617070726f7576c3a920706f7572206365207472616e73666572742021a265627a7a72315820d89fbd8a5f541f62b2974944558f7610dcd35219e94450fc5f6bfc3408a7320364736f6c634300050c0032",
  "source": "pragma solidity ^0.5.11;\n\nimport \"./planeattack.sol\";\nimport \"./erc721.sol\";\nimport \"./safemath.sol\";\nimport \"./planefactory.sol\";\n\n\ncontract PlaneOwnership is PlaneFactory, ERC721 {\n\n  using SafeMath for uint256;\n\n  mapping (uint => address) planeApprovals;\n\n  function balanceOf(address _owner) public view returns (uint256 _balance) {\n    return ownerPlaneCount[_owner];\n  }\n\n  function ownerOf(uint256 _planeId) public view returns (address _owner) {\n    return planeToOwner[_planeId];\n  }\n\n  function _transfer(address _from, address _to, uint256 _planeId) private {\n    require(_from != address(0),\"Adrresse invalide\");\n    require(_to != address(0),\"Adrresse invalide\");\n    ownerPlaneCount[_to] = ownerPlaneCount[_to].add(1);\n    ownerPlaneCount[msg.sender] = ownerPlaneCount[msg.sender].sub(1);\n    planeToOwner[_planeId] = _to;\n    emit Transfer(_from, _to, _planeId);\n  }\n\n  function transfer(address _to, uint256 _planeId) public ownerOnlyOf(_planeId) {\n    _transfer(msg.sender, _to, _planeId);\n  }\n\n  function approve(address _to, uint256 _planeId) public ownerOnlyOf(_planeId) {\n    planeApprovals[_planeId] = _to;\n    emit Approval(msg.sender, _to, _planeId);\n  }\n\n  function takeOwnership(uint256 _planeId) public {\n    require(planeApprovals[_planeId] == msg.sender,\"Vous n'etes pas approuvé pour ce transfert !\");\n    address owner = ownerOf(_planeId);\n    _transfer(owner, msg.sender, _planeId);\n  }\n}\n",
  "sourcePath": "/Users/bloumy/Desktop/Defi721/contracts/planeownership.sol",
  "compiler": {
    "name": "solc",
    "version": "0.5.12+commit.7709ece9.Emscripten.clang"
  },
  "schemaVersion": "3.0.19",
  "updatedAt": "2019-12-13T21:50:06.401Z",
  "devdoc": {
    "methods": {
      "transferOwnership(address)": {
        "details": "Allows the current owner to transfer control of the contract to a newOwner.",
        "params": {
          "newOwner": "The address to transfer ownership to."
        }
      }
    }
  },
  "userdoc": {
    "methods": {}
  }
}