{
  "contractName": "PlaneFuel",
  "abi": [
    {
      "anonymous": false,
      "inputs": [
        {
          "indexed": false,
          "internalType": "uint256",
          "name": "planeId",
          "type": "uint256"
        },
        {
          "indexed": false,
          "internalType": "string",
          "name": "name",
          "type": "string"
        },
        {
          "indexed": false,
          "internalType": "uint256",
          "name": "model",
          "type": "uint256"
        }
      ],
      "name": "NewPlane",
      "type": "event"
    },
    {
      "anonymous": false,
      "inputs": [
        {
          "indexed": true,
          "internalType": "address",
          "name": "previousOwner",
          "type": "address"
        },
        {
          "indexed": true,
          "internalType": "address",
          "name": "newOwner",
          "type": "address"
        }
      ],
      "name": "OwnershipTransferred",
      "type": "event"
    },
    {
      "constant": false,
      "inputs": [
        {
          "internalType": "string",
          "name": "_name",
          "type": "string"
        }
      ],
      "name": "createRandomPlane",
      "outputs": [],
      "payable": false,
      "stateMutability": "nonpayable",
      "type": "function"
    },
    {
      "constant": true,
      "inputs": [],
      "name": "owner",
      "outputs": [
        {
          "internalType": "address",
          "name": "",
          "type": "address"
        }
      ],
      "payable": false,
      "stateMutability": "view",
      "type": "function"
    },
    {
      "constant": true,
      "inputs": [
        {
          "internalType": "uint256",
          "name": "",
          "type": "uint256"
        }
      ],
      "name": "planeToOwner",
      "outputs": [
        {
          "internalType": "address",
          "name": "",
          "type": "address"
        }
      ],
      "payable": false,
      "stateMutability": "view",
      "type": "function"
    },
    {
      "constant": true,
      "inputs": [
        {
          "internalType": "uint256",
          "name": "",
          "type": "uint256"
        }
      ],
      "name": "planes",
      "outputs": [
        {
          "internalType": "string",
          "name": "name",
          "type": "string"
        },
        {
          "internalType": "uint256",
          "name": "model",
          "type": "uint256"
        },
        {
          "internalType": "uint16",
          "name": "level",
          "type": "uint16"
        },
        {
          "internalType": "uint32",
          "name": "readyTimeFuel",
          "type": "uint32"
        },
        {
          "internalType": "uint16",
          "name": "fightwinCount",
          "type": "uint16"
        },
        {
          "internalType": "uint16",
          "name": "fightlossCount",
          "type": "uint16"
        },
        {
          "internalType": "uint16",
          "name": "fightCount",
          "type": "uint16"
        }
      ],
      "payable": false,
      "stateMutability": "view",
      "type": "function"
    },
    {
      "constant": false,
      "inputs": [
        {
          "internalType": "address",
          "name": "newOwner",
          "type": "address"
        }
      ],
      "name": "transferOwnership",
      "outputs": [],
      "payable": false,
      "stateMutability": "nonpayable",
      "type": "function"
    },
    {
      "constant": false,
      "inputs": [
        {
          "internalType": "uint256",
          "name": "_planeId",
          "type": "uint256"
        }
      ],
      "name": "refuel",
      "outputs": [],
      "payable": true,
      "stateMutability": "payable",
      "type": "function"
    },
    {
      "constant": false,
      "inputs": [
        {
          "internalType": "uint256",
          "name": "_planeId",
          "type": "uint256"
        },
        {
          "internalType": "uint256",
          "name": "_targetModel",
          "type": "uint256"
        }
      ],
      "name": "repairAndBuild",
      "outputs": [],
      "payable": false,
      "stateMutability": "nonpayable",
      "type": "function"
    }
  ],
  "bytecode": "0x60806040526010600155662386f26fc100006002556201518060035567016345785d8a0000600755600080546001600160a01b03191633179055610aed806100486000396000f3fe6080604052600436106100705760003560e01c80639f4583d21161004e5780639f4583d21461023b578063ee2e0ac814610265578063f012feb914610282578063f2fde38b146102b257610070565b80634fbfd07f146100755780637c98309a146101555780638da5cb5b1461020a575b600080fd5b34801561008157600080fd5b5061009f6004803603602081101561009857600080fd5b50356102e5565b60408051602080820189905261ffff8089169383019390935263ffffffff87166060830152858316608083015284831660a083015291831660c082015260e08082528951908201528851909182916101008301918b019080838360005b838110156101145781810151838201526020016100fc565b50505050905090810190601f1680156101415780820380516001836020036101000a031916815260200191505b509850505050505050505060405180910390f35b34801561016157600080fd5b506102086004803603602081101561017857600080fd5b81019060208101813564010000000081111561019357600080fd5b8201836020820111156101a557600080fd5b803590602001918460018302840111640100000000831117156101c757600080fd5b91908080601f0160208091040260200160405190810160405280939291908181526020018383808284376000920191909152509295506103d4945050505050565b005b34801561021657600080fd5b5061021f610431565b604080516001600160a01b039092168252519081900360200190f35b34801561024757600080fd5b5061021f6004803603602081101561025e57600080fd5b5035610440565b6102086004803603602081101561027b57600080fd5b503561045b565b34801561028e57600080fd5b50610208600480360360408110156102a557600080fd5b50803590602001356104e0565b3480156102be57600080fd5b50610208600480360360208110156102d557600080fd5b50356001600160a01b03166105fa565b600481815481106102f257fe5b60009182526020918290206003919091020180546040805160026001841615610100026000190190931692909204601f81018590048502830185019091528082529193509183919083018282801561038b5780601f106103605761010080835404028352916020019161038b565b820191906000526020600020905b81548152906001019060200180831161036e57829003601f168201915b50505050600183015460029093015491929161ffff808216925062010000820463ffffffff169166010000000000008104821691600160401b8204811691600160501b90041687565b3360009081526006602052604090205415610410576040805162461bcd60e51b8152602060048201526000602482015290519081900360640190fd5b600061041b8261067f565b905060648106900361042d8282610708565b5050565b6000546001600160a01b031681565b6005602052600090815260409020546001600160a01b031681565b60075434101561049c5760405162461bcd60e51b8152600401808060200182810382526028815260200180610a4b6028913960400191505060405180910390fd5b6003544201600482815481106104ae57fe5b906000526020600020906003020160020160026101000a81548163ffffffff021916908363ffffffff16021790555050565b60008281526005602052604090205482906001600160a01b031633146105375760405162461bcd60e51b8152600401808060200182810382526024815260200180610a956024913960400191505060405180910390fd5b60006004848154811061054657fe5b9060005260206000209060030201905061055f81610958565b61059a5760405162461bcd60e51b8152600401808060200182810382526022815260200180610a736022913960400191505060405180910390fd5b60025483816105a557fe5b0692506000600284836001015401816105ba57fe5b0490506105ea6040518060400160405280600b81526020016a4e6f4e616d65506c616e6560a81b81525082610708565b6105f38261096f565b5050505050565b6000546001600160a01b0316331461061157600080fd5b6001600160a01b03811661062457600080fd5b600080546040516001600160a01b03808516939216917f8be0079c531659141344cd1fd0a4f28419497f9722a3daafe3b4186f6b6457e091a3600080546001600160a01b0319166001600160a01b0392909216919091179055565b600080826040516020018082805190602001908083835b602083106106b55780518252601f199092019160209182019101610696565b6001836020036101000a0380198251168184511680821785525050505050509050019150506040516020818303038152906040528051906020012060001c9050600254818161070057fe5b069392505050565b6040805160e0810182528381526020808201849052600092820183905260038054420163ffffffff1660608401526080830184905260a0830184905260c08301849052600480546001808201808455928752855180519196939593947f8a35acfbc15ff81a39ae7d344fd709f28e8600b4aa8c65c6b64bfe7fe36bd19b9302929092019261079a9284929101906109af565b50602082810151600183810191909155604080850151600290940180546060870151608088015160a089015160c09099015161ffff1990931661ffff9889161765ffffffff000019166201000063ffffffff938416021767ffff00000000000019166601000000000000918916919091021769ffff00000000000000001916600160401b988816989098029790971761ffff60501b1916600160501b969091169590950294909417909355949093036000818152600585528281208054336001600160a01b0319909116811790915581526006909452922054919350610881929061099916565b60066000336001600160a01b03166001600160a01b03168152602001908152602001600020819055507fe0219661cea55309eeb7eed6a319955a1c1073b2aec26cba8acffadf12b9a6658184846040518084815260200180602001838152602001828103825284818151815260200191508051906020019080838360005b838110156109175781810151838201526020016108ff565b50505050905090810190601f1680156109445780820380516001836020036101000a031916815260200191505b5094505050505060405180910390a1505050565b60020154426201000090910463ffffffff16101590565b60035442018160020160026101000a81548163ffffffff021916908363ffffffff16021790555050565b6000828201838110156109a857fe5b9392505050565b828054600181600116156101000203166002900490600052602060002090601f016020900481019282601f106109f057805160ff1916838001178555610a1d565b82800160010185558215610a1d579182015b82811115610a1d578251825591602001919060010190610a02565b50610a29929150610a2d565b5090565b610a4791905b80821115610a295760008155600101610a33565b9056fe50617320617373657a20646520666f6e6420706f75722072656368617267657220656e206675656c566f747265206176696f6e206e276573742070617320656e636f7265207072c3aa744365747465206176696f6e206e6520766f75732061707061727469656e74207061732021a265627a7a72315820ac7a807726cb06f72839392212cf4c17ef0b962476629c0e02ee2074ddfce20964736f6c634300050c0032",
  "source": "pragma solidity ^0.5.11;\n\nimport \"./planefactory.sol\";\n\ncontract PlaneFuel is PlaneFactory {\n\n    uint refuelFee = 0.1 ether;\n\n    function _triggerCooldown(Plane storage _plane) internal {\n        _plane.readyTimeFuel = uint32(block.timestamp + cooldownTime);\n    }\n\n    function _isReady(Plane storage _plane) internal view returns (bool) {\n      return (_plane.readyTimeFuel >= block.timestamp);\n    }\n\n    function refuel(uint _planeId)public payable{\n        require(msg.value >= refuelFee,\"Pas assez de fond pour recharger en fuel\");\n        planes[_planeId].readyTimeFuel = uint32(block.timestamp+ cooldownTime);\n    }\n\n    function repairAndBuild(uint _planeId, uint _targetModel) public ownerOnlyOf(_planeId) {\n        Plane storage myPlane = planes[_planeId];\n        require(_isReady(myPlane),\"Votre avion n'est pas encore prêt\");\n        _targetModel = _targetModel % modelModulus;\n        uint newModel = (myPlane.model + _targetModel) / 2;\n        _createPlane(\"NoNamePlane\", newModel);\n        _triggerCooldown(myPlane);\n    }\n\n}",
  "sourcePath": "/Users/bloumy/Desktop/Defi721/contracts/planefuel.sol",
  "compiler": {
    "name": "solc",
    "version": "0.5.12+commit.7709ece9.Emscripten.clang"
  },
  "schemaVersion": "3.0.19",
  "updatedAt": "2019-12-13T21:50:06.391Z",
  "devdoc": {
    "methods": {
      "transferOwnership(address)": {
        "details": "Allows the current owner to transfer control of the contract to a newOwner.",
        "params": {
          "newOwner": "The address to transfer ownership to."
        }
      }
    }
  },
  "userdoc": {
    "methods": {}
  }
}