{
  "contractName": "PlaneFactory",
  "abi": [
    {
      "anonymous": false,
      "inputs": [
        {
          "indexed": false,
          "internalType": "uint256",
          "name": "planeId",
          "type": "uint256"
        },
        {
          "indexed": false,
          "internalType": "string",
          "name": "name",
          "type": "string"
        },
        {
          "indexed": false,
          "internalType": "uint256",
          "name": "model",
          "type": "uint256"
        }
      ],
      "name": "NewPlane",
      "type": "event"
    },
    {
      "anonymous": false,
      "inputs": [
        {
          "indexed": true,
          "internalType": "address",
          "name": "previousOwner",
          "type": "address"
        },
        {
          "indexed": true,
          "internalType": "address",
          "name": "newOwner",
          "type": "address"
        }
      ],
      "name": "OwnershipTransferred",
      "type": "event"
    },
    {
      "constant": true,
      "inputs": [],
      "name": "owner",
      "outputs": [
        {
          "internalType": "address",
          "name": "",
          "type": "address"
        }
      ],
      "payable": false,
      "stateMutability": "view",
      "type": "function"
    },
    {
      "constant": true,
      "inputs": [
        {
          "internalType": "address",
          "name": "",
          "type": "address"
        }
      ],
      "name": "ownerPlaneCount",
      "outputs": [
        {
          "internalType": "uint256",
          "name": "",
          "type": "uint256"
        }
      ],
      "payable": false,
      "stateMutability": "view",
      "type": "function"
    },
    {
      "constant": true,
      "inputs": [
        {
          "internalType": "uint256",
          "name": "",
          "type": "uint256"
        }
      ],
      "name": "planeToOwner",
      "outputs": [
        {
          "internalType": "address",
          "name": "",
          "type": "address"
        }
      ],
      "payable": false,
      "stateMutability": "view",
      "type": "function"
    },
    {
      "constant": true,
      "inputs": [
        {
          "internalType": "uint256",
          "name": "",
          "type": "uint256"
        }
      ],
      "name": "planes",
      "outputs": [
        {
          "internalType": "string",
          "name": "name",
          "type": "string"
        },
        {
          "internalType": "uint256",
          "name": "model",
          "type": "uint256"
        },
        {
          "internalType": "uint16",
          "name": "level",
          "type": "uint16"
        },
        {
          "internalType": "uint32",
          "name": "readyTimeFuel",
          "type": "uint32"
        },
        {
          "internalType": "uint16",
          "name": "fightwinCount",
          "type": "uint16"
        },
        {
          "internalType": "uint16",
          "name": "fightlossCount",
          "type": "uint16"
        },
        {
          "internalType": "uint16",
          "name": "fightCount",
          "type": "uint16"
        }
      ],
      "payable": false,
      "stateMutability": "view",
      "type": "function"
    },
    {
      "constant": false,
      "inputs": [
        {
          "internalType": "address",
          "name": "newOwner",
          "type": "address"
        }
      ],
      "name": "transferOwnership",
      "outputs": [],
      "payable": false,
      "stateMutability": "nonpayable",
      "type": "function"
    },
    {
      "constant": true,
      "inputs": [
        {
          "internalType": "address",
          "name": "_user",
          "type": "address"
        }
      ],
      "name": "getPlaneCount",
      "outputs": [
        {
          "internalType": "uint256",
          "name": "",
          "type": "uint256"
        }
      ],
      "payable": false,
      "stateMutability": "view",
      "type": "function"
    },
    {
      "constant": false,
      "inputs": [
        {
          "internalType": "string",
          "name": "_name",
          "type": "string"
        }
      ],
      "name": "createRandomPlane",
      "outputs": [],
      "payable": false,
      "stateMutability": "nonpayable",
      "type": "function"
    }
  ],
  "bytecode": "0x60806040526010600155662386f26fc1000060025562015180600355600080546001600160a01b031916331790556108a98061003c6000396000f3fe608060405234801561001057600080fd5b506004361061007d5760003560e01c80638da5cb5b1161005b5780638da5cb5b146102355780639f4583d214610259578063e156d35314610276578063f2fde38b1461029c5761007d565b8063036d8ebd146100825780634fbfd07f146100ba5780637c98309a1461018d575b600080fd5b6100a86004803603602081101561009857600080fd5b50356001600160a01b03166102c2565b60408051918252519081900360200190f35b6100d7600480360360208110156100d057600080fd5b50356102dd565b60408051602080820189905261ffff8089169383019390935263ffffffff87166060830152858316608083015284831660a083015291831660c082015260e08082528951908201528851909182916101008301918b019080838360005b8381101561014c578181015183820152602001610134565b50505050905090810190601f1680156101795780820380516001836020036101000a031916815260200191505b509850505050505050505060405180910390f35b610233600480360360208110156101a357600080fd5b8101906020810181356401000000008111156101be57600080fd5b8201836020820111156101d057600080fd5b803590602001918460018302840111640100000000831117156101f257600080fd5b91908080601f0160208091040260200160405190810160405280939291908181526020018383808284376000920191909152509295506103cc945050505050565b005b61023d610429565b604080516001600160a01b039092168252519081900360200190f35b61023d6004803603602081101561026f57600080fd5b5035610438565b6100a86004803603602081101561028c57600080fd5b50356001600160a01b0316610453565b610233600480360360208110156102b257600080fd5b50356001600160a01b0316610465565b6001600160a01b031660009081526006602052604090205490565b600481815481106102ea57fe5b60009182526020918290206003919091020180546040805160026001841615610100026000190190931692909204601f8101859004850283018501909152808252919350918391908301828280156103835780601f1061035857610100808354040283529160200191610383565b820191906000526020600020905b81548152906001019060200180831161036657829003601f168201915b50505050600183015460029093015491929161ffff808216925062010000820463ffffffff169166010000000000008104821691600160401b8204811691600160501b90041687565b3360009081526006602052604090205415610408576040805162461bcd60e51b8152602060048201526000602482015290519081900360640190fd5b6000610413826104ea565b90506064810690036104258282610573565b5050565b6000546001600160a01b031681565b6005602052600090815260409020546001600160a01b031681565b60066020526000908152604090205481565b6000546001600160a01b0316331461047c57600080fd5b6001600160a01b03811661048f57600080fd5b600080546040516001600160a01b03808516939216917f8be0079c531659141344cd1fd0a4f28419497f9722a3daafe3b4186f6b6457e091a3600080546001600160a01b0319166001600160a01b0392909216919091179055565b600080826040516020018082805190602001908083835b602083106105205780518252601f199092019160209182019101610501565b6001836020036101000a0380198251168184511680821785525050505050509050019150506040516020818303038152906040528051906020012060001c9050600254818161056b57fe5b069392505050565b6040805160e0810182528381526020808201849052600092820183905260038054420163ffffffff1660608401526080830184905260a0830184905260c08301849052600480546001808201808455928752855180519196939593947f8a35acfbc15ff81a39ae7d344fd709f28e8600b4aa8c65c6b64bfe7fe36bd19b930292909201926106059284929101906107d9565b50602082810151600183810191909155604080850151600290940180546060870151608088015160a089015160c09099015161ffff1990931661ffff9889161765ffffffff000019166201000063ffffffff938416021767ffff00000000000019166601000000000000918916919091021769ffff00000000000000001916600160401b988816989098029790971761ffff60501b1916600160501b969091169590950294909417909355949093036000818152600585528281208054336001600160a01b03199091168117909155815260069094529220549193506106ec92906107c316565b60066000336001600160a01b03166001600160a01b03168152602001908152602001600020819055507fe0219661cea55309eeb7eed6a319955a1c1073b2aec26cba8acffadf12b9a6658184846040518084815260200180602001838152602001828103825284818151815260200191508051906020019080838360005b8381101561078257818101518382015260200161076a565b50505050905090810190601f1680156107af5780820380516001836020036101000a031916815260200191505b5094505050505060405180910390a1505050565b6000828201838110156107d257fe5b9392505050565b828054600181600116156101000203166002900490600052602060002090601f016020900481019282601f1061081a57805160ff1916838001178555610847565b82800160010185558215610847579182015b8281111561084757825182559160200191906001019061082c565b50610853929150610857565b5090565b61087191905b80821115610853576000815560010161085d565b9056fea265627a7a723158208123aa0ba74f5e033fbf18066e38932fa28eb7a552cc7fbe401381d276c9f5cb64736f6c634300050c0032",
  "source": "pragma solidity ^0.5.11;\n\nimport \"./ownable.sol\";\nimport \"./safemath.sol\";\n\ncontract PlaneFactory is Ownable {\n\n  using SafeMath for uint256;\n  using SafeMath16 for uint16;\n\n  event NewPlane(uint planeId, string name, uint model);\n\n  uint modelDigits = 16;\n  uint modelModulus = 10 ** modelDigits;\n  uint cooldownTime = 1 days;\n\n  struct Plane {\n    string name;\n    uint model;//model\n    uint16 level;\n    uint32 readyTimeFuel;\n    uint16 fightwinCount;//fightWinCount\n    uint16 fightlossCount;//fightLossCount\n    uint16 fightCount;\n  }\n\n  Plane[] public planes;\n\n  mapping (uint => address) public planeToOwner;\n  mapping (address => uint) public ownerPlaneCount;\n\n  function _createPlane(string memory _name, uint _model) internal {\n    uint id = planes.push(Plane(_name, _model,0,uint32(block.timestamp + cooldownTime),0,0,0)) - 1;\n    planeToOwner[id] = msg.sender;\n    ownerPlaneCount[msg.sender] = ownerPlaneCount[msg.sender].add(1);\n    emit NewPlane(id, _name, _model);\n  }\n\n  function getPlaneCount(address _user) public view returns (uint){\n    return ownerPlaneCount[_user];\n  }\n\n  function _generateRandomModel(string memory _str) private view returns (uint) {\n    uint rand = uint(keccak256(abi.encodePacked(_str)));\n    return rand % modelModulus;\n  }\n\n  function createRandomPlane(string memory _name) public {\n    require(ownerPlaneCount[msg.sender] == 0, \"\");\n    uint randModel = _generateRandomModel(_name);\n    randModel = randModel - randModel % 100;\n    _createPlane(_name, randModel);\n  }\n\n  modifier ownerOnlyOf(uint _planeId){\n    require(planeToOwner[_planeId] == msg.sender,\"Cette avion ne vous appartient pas !\");\n    _;\n  }\n}\n",
  "sourcePath": "/Users/bloumy/Desktop/Defi721/contracts/planefactory.sol",
  "compiler": {
    "name": "solc",
    "version": "0.5.12+commit.7709ece9.Emscripten.clang"
  },
  "schemaVersion": "3.0.19",
  "updatedAt": "2019-12-14T16:30:03.548Z",
  "devdoc": {
    "methods": {
      "transferOwnership(address)": {
        "details": "Allows the current owner to transfer control of the contract to a newOwner.",
        "params": {
          "newOwner": "The address to transfer ownership to."
        }
      }
    }
  },
  "userdoc": {
    "methods": {}
  }
}