{
  "contractName": "PlaneHelper",
  "abi": [
    {
      "anonymous": false,
      "inputs": [
        {
          "indexed": false,
          "internalType": "uint256",
          "name": "planeId",
          "type": "uint256"
        },
        {
          "indexed": false,
          "internalType": "string",
          "name": "name",
          "type": "string"
        },
        {
          "indexed": false,
          "internalType": "uint256",
          "name": "model",
          "type": "uint256"
        }
      ],
      "name": "NewPlane",
      "type": "event"
    },
    {
      "anonymous": false,
      "inputs": [
        {
          "indexed": true,
          "internalType": "address",
          "name": "previousOwner",
          "type": "address"
        },
        {
          "indexed": true,
          "internalType": "address",
          "name": "newOwner",
          "type": "address"
        }
      ],
      "name": "OwnershipTransferred",
      "type": "event"
    },
    {
      "constant": false,
      "inputs": [
        {
          "internalType": "string",
          "name": "_name",
          "type": "string"
        }
      ],
      "name": "createRandomPlane",
      "outputs": [],
      "payable": false,
      "stateMutability": "nonpayable",
      "type": "function"
    },
    {
      "constant": true,
      "inputs": [
        {
          "internalType": "address",
          "name": "_user",
          "type": "address"
        }
      ],
      "name": "getPlaneCount",
      "outputs": [
        {
          "internalType": "uint256",
          "name": "",
          "type": "uint256"
        }
      ],
      "payable": false,
      "stateMutability": "view",
      "type": "function"
    },
    {
      "constant": true,
      "inputs": [],
      "name": "owner",
      "outputs": [
        {
          "internalType": "address",
          "name": "",
          "type": "address"
        }
      ],
      "payable": false,
      "stateMutability": "view",
      "type": "function"
    },
    {
      "constant": true,
      "inputs": [
        {
          "internalType": "address",
          "name": "",
          "type": "address"
        }
      ],
      "name": "ownerPlaneCount",
      "outputs": [
        {
          "internalType": "uint256",
          "name": "",
          "type": "uint256"
        }
      ],
      "payable": false,
      "stateMutability": "view",
      "type": "function"
    },
    {
      "constant": true,
      "inputs": [
        {
          "internalType": "uint256",
          "name": "",
          "type": "uint256"
        }
      ],
      "name": "planeToOwner",
      "outputs": [
        {
          "internalType": "address",
          "name": "",
          "type": "address"
        }
      ],
      "payable": false,
      "stateMutability": "view",
      "type": "function"
    },
    {
      "constant": true,
      "inputs": [
        {
          "internalType": "uint256",
          "name": "",
          "type": "uint256"
        }
      ],
      "name": "planes",
      "outputs": [
        {
          "internalType": "string",
          "name": "name",
          "type": "string"
        },
        {
          "internalType": "uint256",
          "name": "model",
          "type": "uint256"
        },
        {
          "internalType": "uint16",
          "name": "level",
          "type": "uint16"
        },
        {
          "internalType": "uint32",
          "name": "readyTimeFuel",
          "type": "uint32"
        },
        {
          "internalType": "uint16",
          "name": "fightwinCount",
          "type": "uint16"
        },
        {
          "internalType": "uint16",
          "name": "fightlossCount",
          "type": "uint16"
        },
        {
          "internalType": "uint16",
          "name": "fightCount",
          "type": "uint16"
        }
      ],
      "payable": false,
      "stateMutability": "view",
      "type": "function"
    },
    {
      "constant": false,
      "inputs": [
        {
          "internalType": "address",
          "name": "newOwner",
          "type": "address"
        }
      ],
      "name": "transferOwnership",
      "outputs": [],
      "payable": false,
      "stateMutability": "nonpayable",
      "type": "function"
    },
    {
      "constant": false,
      "inputs": [
        {
          "internalType": "address payable",
          "name": "_fund",
          "type": "address"
        }
      ],
      "name": "withdraw",
      "outputs": [],
      "payable": false,
      "stateMutability": "nonpayable",
      "type": "function"
    },
    {
      "constant": false,
      "inputs": [
        {
          "internalType": "uint256",
          "name": "_fee",
          "type": "uint256"
        }
      ],
      "name": "setLevelUpFee",
      "outputs": [],
      "payable": false,
      "stateMutability": "nonpayable",
      "type": "function"
    },
    {
      "constant": false,
      "inputs": [
        {
          "internalType": "uint256",
          "name": "_planeId",
          "type": "uint256"
        }
      ],
      "name": "levelUp",
      "outputs": [],
      "payable": true,
      "stateMutability": "payable",
      "type": "function"
    },
    {
      "constant": false,
      "inputs": [
        {
          "internalType": "uint256",
          "name": "_planeId",
          "type": "uint256"
        },
        {
          "internalType": "string",
          "name": "_newName",
          "type": "string"
        }
      ],
      "name": "changeName",
      "outputs": [],
      "payable": false,
      "stateMutability": "nonpayable",
      "type": "function"
    },
    {
      "constant": false,
      "inputs": [
        {
          "internalType": "uint256",
          "name": "_planeId",
          "type": "uint256"
        },
        {
          "internalType": "uint256",
          "name": "_newModel",
          "type": "uint256"
        }
      ],
      "name": "changeModel",
      "outputs": [],
      "payable": false,
      "stateMutability": "nonpayable",
      "type": "function"
    },
    {
      "constant": true,
      "inputs": [
        {
          "internalType": "address",
          "name": "_owner",
          "type": "address"
        }
      ],
      "name": "getPlanesByOwner",
      "outputs": [
        {
          "internalType": "uint256[]",
          "name": "",
          "type": "uint256[]"
        }
      ],
      "payable": false,
      "stateMutability": "view",
      "type": "function"
    }
  ],
  "bytecode": "0x60806040526010600155662386f26fc100006002556201518060035566038d7ea4c68000600755600080546001600160a01b03191633179055610fa0806100476000396000f3fe6080604052600436106100c25760003560e01c80638da5cb5b1161007f578063c39cbef111610059578063c39cbef1146103ff578063ccf670f8146104b9578063e156d353146104e3578063f2fde38b14610516576100c2565b80638da5cb5b1461037457806398e07760146103a55780639f4583d2146103d5576100c2565b8063036d8ebd146100c75780630ce90ec21461010c5780634fbfd07f1461012b57806351cff8d91461020b5780636a6e84cb1461023e5780637c98309a146102c1575b600080fd5b3480156100d357600080fd5b506100fa600480360360208110156100ea57600080fd5b50356001600160a01b0316610549565b60408051918252519081900360200190f35b6101296004803603602081101561012257600080fd5b5035610564565b005b34801561013757600080fd5b506101556004803603602081101561014e57600080fd5b5035610671565b60408051602080820189905261ffff8089169383019390935263ffffffff87166060830152858316608083015284831660a083015291831660c082015260e08082528951908201528851909182916101008301918b019080838360005b838110156101ca5781810151838201526020016101b2565b50505050905090810190601f1680156101f75780820380516001836020036101000a031916815260200191505b509850505050505050505060405180910390f35b34801561021757600080fd5b506101296004803603602081101561022e57600080fd5b50356001600160a01b0316610760565b34801561024a57600080fd5b506102716004803603602081101561026157600080fd5b50356001600160a01b03166107b2565b60408051602080825283518183015283519192839290830191858101910280838360005b838110156102ad578181015183820152602001610295565b505050509050019250505060405180910390f35b3480156102cd57600080fd5b50610129600480360360208110156102e457600080fd5b8101906020810181356401000000008111156102ff57600080fd5b82018360208201111561031157600080fd5b8035906020019184600183028401116401000000008311171561033357600080fd5b91908080601f016020809104026020016040519081016040528093929190818152602001838380828437600092019190915250929550610867945050505050565b34801561038057600080fd5b506103896108c0565b604080516001600160a01b039092168252519081900360200190f35b3480156103b157600080fd5b50610129600480360360408110156103c857600080fd5b50803590602001356108cf565b3480156103e157600080fd5b50610389600480360360208110156103f857600080fd5b50356109cc565b34801561040b57600080fd5b506101296004803603604081101561042257600080fd5b8135919081019060408101602082013564010000000081111561044457600080fd5b82018360208201111561045657600080fd5b8035906020019184600183028401116401000000008311171561047857600080fd5b91908080601f0160208091040260200160405190810160405280939291908181526020018383808284376000920191909152509295506109e7945050505050565b3480156104c557600080fd5b50610129600480360360208110156104dc57600080fd5b5035610af4565b3480156104ef57600080fd5b506100fa6004803603602081101561050657600080fd5b50356001600160a01b0316610b10565b34801561052257600080fd5b506101296004803603602081101561053957600080fd5b50356001600160a01b0316610b22565b6001600160a01b031660009081526006602052604090205490565b336105aa576040805162461bcd60e51b8152602060048201526011602482015270416472726573736520696e76616c69646560781b604482015290519081900360640190fd5b6007543414610600576040805162461bcd60e51b815260206004820152601c60248201527f566f7573206e276176657a2070617320617373657a2064652066656500000000604482015290519081900360640190fd5b61063660016004838154811061061257fe5b600091825260209091206002600390920201015461ffff169063ffffffff610ba716565b6004828154811061064357fe5b906000526020600020906003020160020160006101000a81548161ffff021916908361ffff16021790555050565b6004818154811061067e57fe5b60009182526020918290206003919091020180546040805160026001841615610100026000190190931692909204601f8101859004850283018501909152808252919350918391908301828280156107175780601f106106ec57610100808354040283529160200191610717565b820191906000526020600020905b8154815290600101906020018083116106fa57829003601f168201915b50505050600183015460029093015491929161ffff808216925062010000820463ffffffff169166010000000000008104821691600160401b8204811691600160501b90041687565b6000546001600160a01b0316331461077757600080fd5b6008546040516001600160a01b0383169180156108fc02916000818181858888f193505050501580156107ae573d6000803e3d6000fd5b5050565b60608060066000846001600160a01b03166001600160a01b0316815260200190815260200160002054604051908082528060200260200182016040528015610804578160200160208202803883390190505b5090506000805b60045481101561085e576000818152600560205260409020546001600160a01b0386811691161415610856578083838151811061084457fe5b60209081029190910101526001909101905b60010161080b565b50909392505050565b33600090815260066020526040902054156108a3576040805162461bcd60e51b8152602060048201526000602482015290519081900360640190fd5b60006108ae82610bc4565b90506064810690036107ae8282610c4d565b6000546001600160a01b031681565b600a8281600482815481106108e057fe5b600091825260209091206002600390920201015461ffff16101561094b576040805162461bcd60e51b815260206004820181905260248201527f566f747265206e6976656175206e276573742070617320737566666973616e74604482015290519081900360640190fd5b60008481526005602052604090205484906001600160a01b031633146109a25760405162461bcd60e51b8152600401808060200182810382526024815260200180610f486024913960400191505060405180910390fd5b83600486815481106109b057fe5b9060005260206000209060030201600101819055505050505050565b6005602052600090815260409020546001600160a01b031681565b60028281600482815481106109f857fe5b600091825260209091206002600390920201015461ffff161015610a63576040805162461bcd60e51b815260206004820181905260248201527f566f747265206e6976656175206e276573742070617320737566666973616e74604482015290519081900360640190fd5b60008481526005602052604090205484906001600160a01b03163314610aba5760405162461bcd60e51b8152600401808060200182810382526024815260200180610f486024913960400191505060405180910390fd5b8360048681548110610ac857fe5b90600052602060002090600302016000019080519060200190610aec929190610eac565b505050505050565b6000546001600160a01b03163314610b0b57600080fd5b600755565b60066020526000908152604090205481565b6000546001600160a01b03163314610b3957600080fd5b6001600160a01b038116610b4c57600080fd5b600080546040516001600160a01b03808516939216917f8be0079c531659141344cd1fd0a4f28419497f9722a3daafe3b4186f6b6457e091a3600080546001600160a01b0319166001600160a01b0392909216919091179055565b600082820161ffff8085169082161015610bbd57fe5b9392505050565b600080826040516020018082805190602001908083835b60208310610bfa5780518252601f199092019160209182019101610bdb565b6001836020036101000a0380198251168184511680821785525050505050509050019150506040516020818303038152906040528051906020012060001c90506002548181610c4557fe5b069392505050565b6040805160e0810182528381526020808201849052600092820183905260038054420163ffffffff1660608401526080830184905260a0830184905260c08301849052600480546001808201808455928752855180519196939593947f8a35acfbc15ff81a39ae7d344fd709f28e8600b4aa8c65c6b64bfe7fe36bd19b93029290920192610cdf928492910190610eac565b50602082810151600183810191909155604080850151600290940180546060870151608088015160a089015160c09099015161ffff1990931661ffff9889161765ffffffff000019166201000063ffffffff938416021767ffff00000000000019166601000000000000918916919091021769ffff00000000000000001916600160401b988816989098029790971761ffff60501b1916600160501b969091169590950294909417909355949093036000818152600585528281208054336001600160a01b0319909116811790915581526006909452922054919350610dc69290610e9d16565b60066000336001600160a01b03166001600160a01b03168152602001908152602001600020819055507fe0219661cea55309eeb7eed6a319955a1c1073b2aec26cba8acffadf12b9a6658184846040518084815260200180602001838152602001828103825284818151815260200191508051906020019080838360005b83811015610e5c578181015183820152602001610e44565b50505050905090810190601f168015610e895780820380516001836020036101000a031916815260200191505b5094505050505060405180910390a1505050565b600082820183811015610bbd57fe5b828054600181600116156101000203166002900490600052602060002090601f016020900481019282601f10610eed57805160ff1916838001178555610f1a565b82800160010185558215610f1a579182015b82811115610f1a578251825591602001919060010190610eff565b50610f26929150610f2a565b5090565b610f4491905b80821115610f265760008155600101610f30565b9056fe4365747465206176696f6e206e6520766f75732061707061727469656e74207061732021a265627a7a72315820fa015d7133d3debc23e890f4553040e595c2c29bcb816ba68efa95d0d785d75d64736f6c634300050c0032",
  "source": "pragma solidity ^0.5.11;\n\nimport \"./planefactory.sol\";\nimport \"./ownable.sol\";\n\ncontract PlaneHelper is PlaneFactory{\n    uint levelUpFee = 0.001 ether;\n    uint private _balance;\n\n  modifier aboveLevel(uint _level, uint _planeId) {\n    require(planes[_planeId].level >= _level, \"Votre niveau n'est pas suffisant\");\n    _;\n  }\n\n  function withdraw(address payable _fund) external onlyOwner {\n    _fund.transfer(_balance);\n  }\n\n  function setLevelUpFee(uint _fee) external onlyOwner {\n    levelUpFee = _fee;\n  }\n\n  function levelUp(uint _planeId) external payable {\n    require(msg.sender != address(0),\"Adrresse invalide\");\n    require(msg.value == levelUpFee,\"Vous n'avez pas assez de fee\");\n    planes[_planeId].level = planes[_planeId].level.add(1);\n  }\n\n  function changeName(uint _planeId, string memory _newName) public aboveLevel(2, _planeId) ownerOnlyOf(_planeId) {\n    planes[_planeId].name = _newName;\n  }\n\n  function changeModel(uint _planeId, uint _newModel) external aboveLevel(10, _planeId) ownerOnlyOf(_planeId) {\n    planes[_planeId].model = _newModel;\n  }\n\n  function getPlanesByOwner(address _owner) external view returns(uint[] memory) {\n    uint[] memory result = new uint[](ownerPlaneCount[_owner]);\n    uint counter = 0;\n    for (uint i = 0; i < planes.length; i++) {\n      if (planeToOwner[i] == _owner) {\n        result[counter] = i;\n        counter++;\n      }\n    }\n    return result;\n  }\n}\n",
  "sourcePath": "/home/tonysepe/github/Defi721/contracts/planehelper.sol",
  "compiler": {
    "name": "solc",
    "version": "0.5.12+commit.7709ece9.Emscripten.clang"
  },
  "schemaVersion": "3.0.19",
  "updatedAt": "2019-12-14T16:42:48.936Z",
  "devdoc": {
    "methods": {
      "transferOwnership(address)": {
        "details": "Allows the current owner to transfer control of the contract to a newOwner.",
        "params": {
          "newOwner": "The address to transfer ownership to."
        }
      }
    }
  },
  "userdoc": {
    "methods": {}
  }
}