{
  "contractName": "PlaneHelper",
  "abi": [
    {
      "anonymous": false,
      "inputs": [
        {
          "indexed": false,
          "internalType": "uint256",
          "name": "planeId",
          "type": "uint256"
        },
        {
          "indexed": false,
          "internalType": "string",
          "name": "name",
          "type": "string"
        },
        {
          "indexed": false,
          "internalType": "uint256",
          "name": "model",
          "type": "uint256"
        }
      ],
      "name": "NewPlane",
      "type": "event"
    },
    {
      "anonymous": false,
      "inputs": [
        {
          "indexed": true,
          "internalType": "address",
          "name": "previousOwner",
          "type": "address"
        },
        {
          "indexed": true,
          "internalType": "address",
          "name": "newOwner",
          "type": "address"
        }
      ],
      "name": "OwnershipTransferred",
      "type": "event"
    },
    {
      "constant": false,
      "inputs": [
        {
          "internalType": "string",
          "name": "_name",
          "type": "string"
        }
      ],
      "name": "createRandomPlane",
      "outputs": [],
      "payable": false,
      "stateMutability": "nonpayable",
      "type": "function"
    },
    {
      "constant": true,
      "inputs": [],
      "name": "owner",
      "outputs": [
        {
          "internalType": "address",
          "name": "",
          "type": "address"
        }
      ],
      "payable": false,
      "stateMutability": "view",
      "type": "function"
    },
    {
      "constant": true,
      "inputs": [
        {
          "internalType": "uint256",
          "name": "",
          "type": "uint256"
        }
      ],
      "name": "planeToOwner",
      "outputs": [
        {
          "internalType": "address",
          "name": "",
          "type": "address"
        }
      ],
      "payable": false,
      "stateMutability": "view",
      "type": "function"
    },
    {
      "constant": true,
      "inputs": [
        {
          "internalType": "uint256",
          "name": "",
          "type": "uint256"
        }
      ],
      "name": "planes",
      "outputs": [
        {
          "internalType": "string",
          "name": "name",
          "type": "string"
        },
        {
          "internalType": "uint256",
          "name": "model",
          "type": "uint256"
        },
        {
          "internalType": "uint16",
          "name": "level",
          "type": "uint16"
        },
        {
          "internalType": "uint32",
          "name": "readyTimeFuel",
          "type": "uint32"
        },
        {
          "internalType": "uint16",
          "name": "fightwinCount",
          "type": "uint16"
        },
        {
          "internalType": "uint16",
          "name": "fightlossCount",
          "type": "uint16"
        },
        {
          "internalType": "uint16",
          "name": "fightCount",
          "type": "uint16"
        }
      ],
      "payable": false,
      "stateMutability": "view",
      "type": "function"
    },
    {
      "constant": false,
      "inputs": [
        {
          "internalType": "address",
          "name": "newOwner",
          "type": "address"
        }
      ],
      "name": "transferOwnership",
      "outputs": [],
      "payable": false,
      "stateMutability": "nonpayable",
      "type": "function"
    },
    {
      "constant": false,
      "inputs": [
        {
          "internalType": "address payable",
          "name": "_fund",
          "type": "address"
        }
      ],
      "name": "withdraw",
      "outputs": [],
      "payable": false,
      "stateMutability": "nonpayable",
      "type": "function"
    },
    {
      "constant": false,
      "inputs": [
        {
          "internalType": "uint256",
          "name": "_fee",
          "type": "uint256"
        }
      ],
      "name": "setLevelUpFee",
      "outputs": [],
      "payable": false,
      "stateMutability": "nonpayable",
      "type": "function"
    },
    {
      "constant": false,
      "inputs": [
        {
          "internalType": "uint256",
          "name": "_planeId",
          "type": "uint256"
        }
      ],
      "name": "levelUp",
      "outputs": [],
      "payable": true,
      "stateMutability": "payable",
      "type": "function"
    },
    {
      "constant": false,
      "inputs": [
        {
          "internalType": "uint256",
          "name": "_planeId",
          "type": "uint256"
        },
        {
          "internalType": "string",
          "name": "_newName",
          "type": "string"
        }
      ],
      "name": "changeName",
      "outputs": [],
      "payable": false,
      "stateMutability": "nonpayable",
      "type": "function"
    },
    {
      "constant": false,
      "inputs": [
        {
          "internalType": "uint256",
          "name": "_planeId",
          "type": "uint256"
        },
        {
          "internalType": "uint256",
          "name": "_newModel",
          "type": "uint256"
        }
      ],
      "name": "changeModel",
      "outputs": [],
      "payable": false,
      "stateMutability": "nonpayable",
      "type": "function"
    },
    {
      "constant": true,
      "inputs": [
        {
          "internalType": "address",
          "name": "_owner",
          "type": "address"
        }
      ],
      "name": "getPlanesByOwner",
      "outputs": [
        {
          "internalType": "uint256[]",
          "name": "",
          "type": "uint256[]"
        }
      ],
      "payable": false,
      "stateMutability": "view",
      "type": "function"
    }
  ],
  "bytecode": "0x60806040526010600155662386f26fc100006002556201518060035566038d7ea4c68000600755600080546001600160a01b03191633179055610ed5806100476000396000f3fe60806040526004361061009c5760003560e01c80638da5cb5b116100645780638da5cb5b1461030957806398e077601461033a5780639f4583d21461036a578063c39cbef114610394578063ccf670f81461044e578063f2fde38b146104785761009c565b80630ce90ec2146100a15780634fbfd07f146100c057806351cff8d9146101a05780636a6e84cb146101d35780637c98309a14610256575b600080fd5b6100be600480360360208110156100b757600080fd5b50356104ab565b005b3480156100cc57600080fd5b506100ea600480360360208110156100e357600080fd5b50356105b8565b60408051602080820189905261ffff8089169383019390935263ffffffff87166060830152858316608083015284831660a083015291831660c082015260e08082528951908201528851909182916101008301918b019080838360005b8381101561015f578181015183820152602001610147565b50505050905090810190601f16801561018c5780820380516001836020036101000a031916815260200191505b509850505050505050505060405180910390f35b3480156101ac57600080fd5b506100be600480360360208110156101c357600080fd5b50356001600160a01b03166106a7565b3480156101df57600080fd5b50610206600480360360208110156101f657600080fd5b50356001600160a01b03166106f9565b60408051602080825283518183015283519192839290830191858101910280838360005b8381101561024257818101518382015260200161022a565b505050509050019250505060405180910390f35b34801561026257600080fd5b506100be6004803603602081101561027957600080fd5b81019060208101813564010000000081111561029457600080fd5b8201836020820111156102a657600080fd5b803590602001918460018302840111640100000000831117156102c857600080fd5b91908080601f0160208091040260200160405190810160405280939291908181526020018383808284376000920191909152509295506107ae945050505050565b34801561031557600080fd5b5061031e610807565b604080516001600160a01b039092168252519081900360200190f35b34801561034657600080fd5b506100be6004803603604081101561035d57600080fd5b5080359060200135610816565b34801561037657600080fd5b5061031e6004803603602081101561038d57600080fd5b5035610913565b3480156103a057600080fd5b506100be600480360360408110156103b757600080fd5b813591908101906040810160208201356401000000008111156103d957600080fd5b8201836020820111156103eb57600080fd5b8035906020019184600183028401116401000000008311171561040d57600080fd5b91908080601f01602080910402602001604051908101604052809392919081815260200183838082843760009201919091525092955061092e945050505050565b34801561045a57600080fd5b506100be6004803603602081101561047157600080fd5b5035610a3b565b34801561048457600080fd5b506100be6004803603602081101561049b57600080fd5b50356001600160a01b0316610a57565b336104f1576040805162461bcd60e51b8152602060048201526011602482015270416472726573736520696e76616c69646560781b604482015290519081900360640190fd5b6007543414610547576040805162461bcd60e51b815260206004820152601c60248201527f566f7573206e276176657a2070617320617373657a2064652066656500000000604482015290519081900360640190fd5b61057d60016004838154811061055957fe5b600091825260209091206002600390920201015461ffff169063ffffffff610adc16565b6004828154811061058a57fe5b906000526020600020906003020160020160006101000a81548161ffff021916908361ffff16021790555050565b600481815481106105c557fe5b60009182526020918290206003919091020180546040805160026001841615610100026000190190931692909204601f81018590048502830185019091528082529193509183919083018282801561065e5780601f106106335761010080835404028352916020019161065e565b820191906000526020600020905b81548152906001019060200180831161064157829003601f168201915b50505050600183015460029093015491929161ffff808216925062010000820463ffffffff169166010000000000008104821691600160401b8204811691600160501b90041687565b6000546001600160a01b031633146106be57600080fd5b6008546040516001600160a01b0383169180156108fc02916000818181858888f193505050501580156106f5573d6000803e3d6000fd5b5050565b60608060066000846001600160a01b03166001600160a01b031681526020019081526020016000205460405190808252806020026020018201604052801561074b578160200160208202803883390190505b5090506000805b6004548110156107a5576000818152600560205260409020546001600160a01b038681169116141561079d578083838151811061078b57fe5b60209081029190910101526001909101905b600101610752565b50909392505050565b33600090815260066020526040902054156107ea576040805162461bcd60e51b8152602060048201526000602482015290519081900360640190fd5b60006107f582610af9565b90506064810690036106f58282610b82565b6000546001600160a01b031681565b600a82816004828154811061082757fe5b600091825260209091206002600390920201015461ffff161015610892576040805162461bcd60e51b815260206004820181905260248201527f566f747265206e6976656175206e276573742070617320737566666973616e74604482015290519081900360640190fd5b60008481526005602052604090205484906001600160a01b031633146108e95760405162461bcd60e51b8152600401808060200182810382526024815260200180610e7d6024913960400191505060405180910390fd5b83600486815481106108f757fe5b9060005260206000209060030201600101819055505050505050565b6005602052600090815260409020546001600160a01b031681565b600282816004828154811061093f57fe5b600091825260209091206002600390920201015461ffff1610156109aa576040805162461bcd60e51b815260206004820181905260248201527f566f747265206e6976656175206e276573742070617320737566666973616e74604482015290519081900360640190fd5b60008481526005602052604090205484906001600160a01b03163314610a015760405162461bcd60e51b8152600401808060200182810382526024815260200180610e7d6024913960400191505060405180910390fd5b8360048681548110610a0f57fe5b90600052602060002090600302016000019080519060200190610a33929190610de1565b505050505050565b6000546001600160a01b03163314610a5257600080fd5b600755565b6000546001600160a01b03163314610a6e57600080fd5b6001600160a01b038116610a8157600080fd5b600080546040516001600160a01b03808516939216917f8be0079c531659141344cd1fd0a4f28419497f9722a3daafe3b4186f6b6457e091a3600080546001600160a01b0319166001600160a01b0392909216919091179055565b600082820161ffff8085169082161015610af257fe5b9392505050565b600080826040516020018082805190602001908083835b60208310610b2f5780518252601f199092019160209182019101610b10565b6001836020036101000a0380198251168184511680821785525050505050509050019150506040516020818303038152906040528051906020012060001c90506002548181610b7a57fe5b069392505050565b6040805160e0810182528381526020808201849052600092820183905260038054420163ffffffff1660608401526080830184905260a0830184905260c08301849052600480546001808201808455928752855180519196939593947f8a35acfbc15ff81a39ae7d344fd709f28e8600b4aa8c65c6b64bfe7fe36bd19b93029290920192610c14928492910190610de1565b50602082810151600183810191909155604080850151600290940180546060870151608088015160a089015160c09099015161ffff1990931661ffff9889161765ffffffff000019166201000063ffffffff938416021767ffff00000000000019166601000000000000918916919091021769ffff00000000000000001916600160401b988816989098029790971761ffff60501b1916600160501b969091169590950294909417909355949093036000818152600585528281208054336001600160a01b0319909116811790915581526006909452922054919350610cfb9290610dd216565b60066000336001600160a01b03166001600160a01b03168152602001908152602001600020819055507fe0219661cea55309eeb7eed6a319955a1c1073b2aec26cba8acffadf12b9a6658184846040518084815260200180602001838152602001828103825284818151815260200191508051906020019080838360005b83811015610d91578181015183820152602001610d79565b50505050905090810190601f168015610dbe5780820380516001836020036101000a031916815260200191505b5094505050505060405180910390a1505050565b600082820183811015610af257fe5b828054600181600116156101000203166002900490600052602060002090601f016020900481019282601f10610e2257805160ff1916838001178555610e4f565b82800160010185558215610e4f579182015b82811115610e4f578251825591602001919060010190610e34565b50610e5b929150610e5f565b5090565b610e7991905b80821115610e5b5760008155600101610e65565b9056fe4365747465206176696f6e206e6520766f75732061707061727469656e74207061732021a265627a7a72315820a24f40dad706eb19761326385fd6fb6eb9f79e8dca1a221a1db6cd4b0d839d9064736f6c634300050c0032",
  "source": "pragma solidity ^0.5.11;\n\nimport \"./planefactory.sol\";\nimport \"./ownable.sol\";\n\ncontract PlaneHelper is PlaneFactory{\n    uint levelUpFee = 0.001 ether;\n    uint private _balance;\n\n  modifier aboveLevel(uint _level, uint _planeId) {\n    require(planes[_planeId].level >= _level, \"Votre niveau n'est pas suffisant\");\n    _;\n  }\n\n  function withdraw(address payable _fund) external onlyOwner {\n    _fund.transfer(_balance);\n  }\n\n  function setLevelUpFee(uint _fee) external onlyOwner {\n    levelUpFee = _fee;\n  }\n\n  function levelUp(uint _planeId) external payable {\n    require(msg.sender != address(0),\"Adrresse invalide\");\n    require(msg.value == levelUpFee,\"Vous n'avez pas assez de fee\");\n    planes[_planeId].level = planes[_planeId].level.add(1);\n  }\n\n  function changeName(uint _planeId, string memory _newName) public aboveLevel(2, _planeId) ownerOnlyOf(_planeId) {\n    planes[_planeId].name = _newName;\n  }\n\n  function changeModel(uint _planeId, uint _newModel) external aboveLevel(10, _planeId) ownerOnlyOf(_planeId) {\n    planes[_planeId].model = _newModel;\n  }\n\n  function getPlanesByOwner(address _owner) external view returns(uint[] memory) {\n    uint[] memory result = new uint[](ownerPlaneCount[_owner]);\n    uint counter = 0;\n    for (uint i = 0; i < planes.length; i++) {\n      if (planeToOwner[i] == _owner) {\n        result[counter] = i;\n        counter++;\n      }\n    }\n    return result;\n  }\n}\n",
  "sourcePath": "/Users/bloumy/Desktop/Defi721/contracts/planehelper.sol",
  "compiler": {
    "name": "solc",
    "version": "0.5.12+commit.7709ece9.Emscripten.clang"
  },
  "schemaVersion": "3.0.19",
  "updatedAt": "2019-12-13T21:50:06.396Z",
  "devdoc": {
    "methods": {
      "transferOwnership(address)": {
        "details": "Allows the current owner to transfer control of the contract to a newOwner.",
        "params": {
          "newOwner": "The address to transfer ownership to."
        }
      }
    }
  },
  "userdoc": {
    "methods": {}
  }
}