{
  "contractName": "PlaneOwnership",
  "abi": [
    {
      "anonymous": false,
      "inputs": [
        {
          "indexed": true,
          "internalType": "address",
          "name": "_owner",
          "type": "address"
        },
        {
          "indexed": true,
          "internalType": "address",
          "name": "_approved",
          "type": "address"
        },
        {
          "indexed": false,
          "internalType": "uint256",
          "name": "_tokenId",
          "type": "uint256"
        }
      ],
      "name": "Approval",
      "type": "event"
    },
    {
      "anonymous": false,
      "inputs": [
        {
          "indexed": false,
          "internalType": "uint256",
          "name": "planeId",
          "type": "uint256"
        },
        {
          "indexed": false,
          "internalType": "string",
          "name": "name",
          "type": "string"
        },
        {
          "indexed": false,
          "internalType": "uint256",
          "name": "model",
          "type": "uint256"
        }
      ],
      "name": "NewPlane",
      "type": "event"
    },
    {
      "anonymous": false,
      "inputs": [
        {
          "indexed": true,
          "internalType": "address",
          "name": "previousOwner",
          "type": "address"
        },
        {
          "indexed": true,
          "internalType": "address",
          "name": "newOwner",
          "type": "address"
        }
      ],
      "name": "OwnershipTransferred",
      "type": "event"
    },
    {
      "anonymous": false,
      "inputs": [
        {
          "indexed": true,
          "internalType": "address",
          "name": "_from",
          "type": "address"
        },
        {
          "indexed": true,
          "internalType": "address",
          "name": "_to",
          "type": "address"
        },
        {
          "indexed": false,
          "internalType": "uint256",
          "name": "_tokenId",
          "type": "uint256"
        }
      ],
      "name": "Transfer",
      "type": "event"
    },
    {
      "constant": false,
      "inputs": [
        {
          "internalType": "string",
          "name": "_name",
          "type": "string"
        }
      ],
      "name": "createRandomPlane",
      "outputs": [],
      "payable": false,
      "stateMutability": "nonpayable",
      "type": "function"
    },
    {
      "constant": true,
      "inputs": [
        {
          "internalType": "address",
          "name": "_user",
          "type": "address"
        }
      ],
      "name": "getPlaneCount",
      "outputs": [
        {
          "internalType": "uint256",
          "name": "",
          "type": "uint256"
        }
      ],
      "payable": false,
      "stateMutability": "view",
      "type": "function"
    },
    {
      "constant": true,
      "inputs": [],
      "name": "owner",
      "outputs": [
        {
          "internalType": "address",
          "name": "",
          "type": "address"
        }
      ],
      "payable": false,
      "stateMutability": "view",
      "type": "function"
    },
    {
      "constant": true,
      "inputs": [
        {
          "internalType": "address",
          "name": "",
          "type": "address"
        }
      ],
      "name": "ownerPlaneCount",
      "outputs": [
        {
          "internalType": "uint256",
          "name": "",
          "type": "uint256"
        }
      ],
      "payable": false,
      "stateMutability": "view",
      "type": "function"
    },
    {
      "constant": true,
      "inputs": [
        {
          "internalType": "uint256",
          "name": "",
          "type": "uint256"
        }
      ],
      "name": "planeToOwner",
      "outputs": [
        {
          "internalType": "address",
          "name": "",
          "type": "address"
        }
      ],
      "payable": false,
      "stateMutability": "view",
      "type": "function"
    },
    {
      "constant": true,
      "inputs": [
        {
          "internalType": "uint256",
          "name": "",
          "type": "uint256"
        }
      ],
      "name": "planes",
      "outputs": [
        {
          "internalType": "string",
          "name": "name",
          "type": "string"
        },
        {
          "internalType": "uint256",
          "name": "model",
          "type": "uint256"
        },
        {
          "internalType": "uint16",
          "name": "level",
          "type": "uint16"
        },
        {
          "internalType": "uint32",
          "name": "readyTimeFuel",
          "type": "uint32"
        },
        {
          "internalType": "uint16",
          "name": "fightwinCount",
          "type": "uint16"
        },
        {
          "internalType": "uint16",
          "name": "fightlossCount",
          "type": "uint16"
        },
        {
          "internalType": "uint16",
          "name": "fightCount",
          "type": "uint16"
        }
      ],
      "payable": false,
      "stateMutability": "view",
      "type": "function"
    },
    {
      "constant": false,
      "inputs": [
        {
          "internalType": "address",
          "name": "newOwner",
          "type": "address"
        }
      ],
      "name": "transferOwnership",
      "outputs": [],
      "payable": false,
      "stateMutability": "nonpayable",
      "type": "function"
    },
    {
      "constant": true,
      "inputs": [
        {
          "internalType": "address",
          "name": "_owner",
          "type": "address"
        }
      ],
      "name": "balanceOf",
      "outputs": [
        {
          "internalType": "uint256",
          "name": "_balance",
          "type": "uint256"
        }
      ],
      "payable": false,
      "stateMutability": "view",
      "type": "function"
    },
    {
      "constant": true,
      "inputs": [
        {
          "internalType": "uint256",
          "name": "_planeId",
          "type": "uint256"
        }
      ],
      "name": "ownerOf",
      "outputs": [
        {
          "internalType": "address",
          "name": "_owner",
          "type": "address"
        }
      ],
      "payable": false,
      "stateMutability": "view",
      "type": "function"
    },
    {
      "constant": false,
      "inputs": [
        {
          "internalType": "address",
          "name": "_to",
          "type": "address"
        },
        {
          "internalType": "uint256",
          "name": "_planeId",
          "type": "uint256"
        }
      ],
      "name": "transfer",
      "outputs": [],
      "payable": false,
      "stateMutability": "nonpayable",
      "type": "function"
    },
    {
      "constant": false,
      "inputs": [
        {
          "internalType": "address",
          "name": "_to",
          "type": "address"
        },
        {
          "internalType": "uint256",
          "name": "_planeId",
          "type": "uint256"
        }
      ],
      "name": "approve",
      "outputs": [],
      "payable": false,
      "stateMutability": "nonpayable",
      "type": "function"
    },
    {
      "constant": false,
      "inputs": [
        {
          "internalType": "uint256",
          "name": "_planeId",
          "type": "uint256"
        }
      ],
      "name": "takeOwnership",
      "outputs": [],
      "payable": false,
      "stateMutability": "nonpayable",
      "type": "function"
    }
  ],
  "bytecode": "0x60806040526010600155662386f26fc1000060025562015180600355600080546001600160a01b03191633179055610cf58061003c6000396000f3fe608060405234801561001057600080fd5b50600436106100b45760003560e01c80638da5cb5b116100715780638da5cb5b146102d15780639f4583d2146102d9578063a9059cbb146102f6578063b2e6ceeb14610322578063e156d3531461033f578063f2fde38b14610365576100b4565b8063036d8ebd146100b9578063095ea7b3146100f15780634fbfd07f1461011f5780636352211e146101f257806370a08231146100b95780637c98309a1461022b575b600080fd5b6100df600480360360208110156100cf57600080fd5b50356001600160a01b031661038b565b60408051918252519081900360200190f35b61011d6004803603604081101561010757600080fd5b506001600160a01b0381351690602001356103a6565b005b61013c6004803603602081101561013557600080fd5b5035610464565b60408051602080820189905261ffff8089169383019390935263ffffffff87166060830152858316608083015284831660a083015291831660c082015260e08082528951908201528851909182916101008301918b019080838360005b838110156101b1578181015183820152602001610199565b50505050905090810190601f1680156101de5780820380516001836020036101000a031916815260200191505b509850505050505050505060405180910390f35b61020f6004803603602081101561020857600080fd5b5035610553565b604080516001600160a01b039092168252519081900360200190f35b61011d6004803603602081101561024157600080fd5b81019060208101813564010000000081111561025c57600080fd5b82018360208201111561026e57600080fd5b8035906020019184600183028401116401000000008311171561029057600080fd5b91908080601f01602080910402602001604051908101604052809392919081815260200183838082843760009201919091525092955061056e945050505050565b61020f6105cb565b61020f600480360360208110156102ef57600080fd5b50356105da565b61011d6004803603604081101561030c57600080fd5b506001600160a01b0381351690602001356105f5565b61011d6004803603602081101561033857600080fd5b503561065c565b6100df6004803603602081101561035557600080fd5b50356001600160a01b03166106c9565b61011d6004803603602081101561037b57600080fd5b50356001600160a01b03166106db565b6001600160a01b031660009081526006602052604090205490565b60008181526005602052604090205481906001600160a01b031633146103fd5760405162461bcd60e51b8152600401808060200182810382526024815260200180610c706024913960400191505060405180910390fd5b60008281526007602090815260409182902080546001600160a01b0319166001600160a01b03871690811790915582518581529251909233927f8c5be1e5ebec7d5bd14f71427d1e84f3dd0314c0f7b2291e5b200ac8c7c3b92592918290030190a3505050565b6004818154811061047157fe5b60009182526020918290206003919091020180546040805160026001841615610100026000190190931692909204601f81018590048502830185019091528082529193509183919083018282801561050a5780601f106104df5761010080835404028352916020019161050a565b820191906000526020600020905b8154815290600101906020018083116104ed57829003601f168201915b50505050600183015460029093015491929161ffff808216925062010000820463ffffffff169166010000000000008104821691600160401b8204811691600160501b90041687565b6000908152600560205260409020546001600160a01b031690565b33600090815260066020526040902054156105aa576040805162461bcd60e51b8152602060048201526000602482015290519081900360640190fd5b60006105b582610760565b90506064810690036105c782826107e9565b5050565b6000546001600160a01b031681565b6005602052600090815260409020546001600160a01b031681565b60008181526005602052604090205481906001600160a01b0316331461064c5760405162461bcd60e51b8152600401808060200182810382526024815260200180610c706024913960400191505060405180910390fd5b610657338484610a39565b505050565b6000818152600760205260409020546001600160a01b031633146106b15760405162461bcd60e51b815260040180806020018281038252602d815260200180610c94602d913960400191505060405180910390fd5b60006106bc82610553565b90506105c7813384610a39565b60066020526000908152604090205481565b6000546001600160a01b031633146106f257600080fd5b6001600160a01b03811661070557600080fd5b600080546040516001600160a01b03808516939216917f8be0079c531659141344cd1fd0a4f28419497f9722a3daafe3b4186f6b6457e091a3600080546001600160a01b0319166001600160a01b0392909216919091179055565b600080826040516020018082805190602001908083835b602083106107965780518252601f199092019160209182019101610777565b6001836020036101000a0380198251168184511680821785525050505050509050019150506040516020818303038152906040528051906020012060001c905060025481816107e157fe5b069392505050565b6040805160e0810182528381526020808201849052600092820183905260038054420163ffffffff1660608401526080830184905260a0830184905260c08301849052600480546001808201808455928752855180519196939593947f8a35acfbc15ff81a39ae7d344fd709f28e8600b4aa8c65c6b64bfe7fe36bd19b9302929092019261087b928492910190610bd4565b50602082810151600183810191909155604080850151600290940180546060870151608088015160a089015160c09099015161ffff1990931661ffff9889161765ffffffff000019166201000063ffffffff938416021767ffff00000000000019166601000000000000918916919091021769ffff00000000000000001916600160401b988816989098029790971761ffff60501b1916600160501b969091169590950294909417909355949093036000818152600585528281208054336001600160a01b03199091168117909155815260069094529220549193506109629290610bac16565b60066000336001600160a01b03166001600160a01b03168152602001908152602001600020819055507fe0219661cea55309eeb7eed6a319955a1c1073b2aec26cba8acffadf12b9a6658184846040518084815260200180602001838152602001828103825284818151815260200191508051906020019080838360005b838110156109f85781810151838201526020016109e0565b50505050905090810190601f168015610a255780820380516001836020036101000a031916815260200191505b5094505050505060405180910390a1505050565b6001600160a01b038316610a88576040805162461bcd60e51b8152602060048201526011602482015270416472726573736520696e76616c69646560781b604482015290519081900360640190fd5b6001600160a01b038216610ad7576040805162461bcd60e51b8152602060048201526011602482015270416472726573736520696e76616c69646560781b604482015290519081900360640190fd5b6001600160a01b038216600090815260066020526040902054610b0190600163ffffffff610bac16565b6001600160a01b038316600090815260066020526040808220929092553381522054610b3490600163ffffffff610bc216565b33600090815260066020908152604080832093909355838252600581529082902080546001600160a01b0319166001600160a01b03868116918217909255835185815293519093918716927fddf252ad1be2c89b69c2b068fc378daa952ba7f163c4a11628f55a4df523b3ef928290030190a3505050565b600082820183811015610bbb57fe5b9392505050565b600082821115610bce57fe5b50900390565b828054600181600116156101000203166002900490600052602060002090601f016020900481019282601f10610c1557805160ff1916838001178555610c42565b82800160010185558215610c42579182015b82811115610c42578251825591602001919060010190610c27565b50610c4e929150610c52565b5090565b610c6c91905b80821115610c4e5760008155600101610c58565b9056fe4365747465206176696f6e206e6520766f75732061707061727469656e74207061732021566f7573206e27657465732070617320617070726f7576c3a920706f7572206365207472616e73666572742021a265627a7a72315820737b33e06118f6a65e5a3bb4514cc355357846b61af5576aaedee0d4041b85cc64736f6c634300050c0032",
  "source": "pragma solidity ^0.5.11;\n\nimport \"./planeattack.sol\";\nimport \"./erc721.sol\";\nimport \"./safemath.sol\";\nimport \"./planefactory.sol\";\n\n\ncontract PlaneOwnership is PlaneFactory, ERC721 {\n\n  using SafeMath for uint256;\n\n  mapping (uint => address) planeApprovals;\n\n  function balanceOf(address _owner) public view returns (uint256 _balance) {\n    return ownerPlaneCount[_owner];\n  }\n\n  function ownerOf(uint256 _planeId) public view returns (address _owner) {\n    return planeToOwner[_planeId];\n  }\n\n  function _transfer(address _from, address _to, uint256 _planeId) private {\n    require(_from != address(0),\"Adrresse invalide\");\n    require(_to != address(0),\"Adrresse invalide\");\n    ownerPlaneCount[_to] = ownerPlaneCount[_to].add(1);\n    ownerPlaneCount[msg.sender] = ownerPlaneCount[msg.sender].sub(1);\n    planeToOwner[_planeId] = _to;\n    emit Transfer(_from, _to, _planeId);\n  }\n\n  function transfer(address _to, uint256 _planeId) public ownerOnlyOf(_planeId) {\n    _transfer(msg.sender, _to, _planeId);\n  }\n\n  function approve(address _to, uint256 _planeId) public ownerOnlyOf(_planeId) {\n    planeApprovals[_planeId] = _to;\n    emit Approval(msg.sender, _to, _planeId);\n  }\n\n  function takeOwnership(uint256 _planeId) public {\n    require(planeApprovals[_planeId] == msg.sender,\"Vous n'etes pas approuvé pour ce transfert !\");\n    address owner = ownerOf(_planeId);\n    _transfer(owner, msg.sender, _planeId);\n  }\n}\n",
  "sourcePath": "/home/tonysepe/github/Defi721/contracts/planeownership.sol",
  "compiler": {
    "name": "solc",
    "version": "0.5.12+commit.7709ece9.Emscripten.clang"
  },
  "schemaVersion": "3.0.19",
  "updatedAt": "2019-12-14T16:42:48.945Z",
  "devdoc": {
    "methods": {
      "transferOwnership(address)": {
        "details": "Allows the current owner to transfer control of the contract to a newOwner.",
        "params": {
          "newOwner": "The address to transfer ownership to."
        }
      }
    }
  },
  "userdoc": {
    "methods": {}
  }
}