{
  "contractName": "PlaneHelper",
  "abi": [
    {
      "anonymous": false,
      "inputs": [
        {
          "indexed": false,
          "internalType": "uint256",
          "name": "planeId",
          "type": "uint256"
        },
        {
          "indexed": false,
          "internalType": "string",
          "name": "name",
          "type": "string"
        },
        {
          "indexed": false,
          "internalType": "uint256",
          "name": "model",
          "type": "uint256"
        }
      ],
      "name": "NewPlane",
      "type": "event"
    },
    {
      "anonymous": false,
      "inputs": [
        {
          "indexed": true,
          "internalType": "address",
          "name": "previousOwner",
          "type": "address"
        },
        {
          "indexed": true,
          "internalType": "address",
          "name": "newOwner",
          "type": "address"
        }
      ],
      "name": "OwnershipTransferred",
      "type": "event"
    },
    {
      "constant": false,
      "inputs": [
        {
          "internalType": "string",
          "name": "_name",
          "type": "string"
        }
      ],
      "name": "createRandomPlane",
      "outputs": [],
      "payable": false,
      "stateMutability": "nonpayable",
      "type": "function"
    },
    {
      "constant": true,
      "inputs": [],
      "name": "owner",
      "outputs": [
        {
          "internalType": "address",
          "name": "",
          "type": "address"
        }
      ],
      "payable": false,
      "stateMutability": "view",
      "type": "function"
    },
    {
      "constant": true,
      "inputs": [
        {
          "internalType": "uint256",
          "name": "",
          "type": "uint256"
        }
      ],
      "name": "planeToOwner",
      "outputs": [
        {
          "internalType": "address",
          "name": "",
          "type": "address"
        }
      ],
      "payable": false,
      "stateMutability": "view",
      "type": "function"
    },
    {
      "constant": true,
      "inputs": [
        {
          "internalType": "uint256",
          "name": "",
          "type": "uint256"
        }
      ],
      "name": "planes",
      "outputs": [
        {
          "internalType": "string",
          "name": "name",
          "type": "string"
        },
        {
          "internalType": "uint256",
          "name": "model",
          "type": "uint256"
        },
        {
          "internalType": "uint16",
          "name": "level",
          "type": "uint16"
        },
        {
          "internalType": "uint32",
          "name": "readyTimeFuel",
          "type": "uint32"
        },
        {
          "internalType": "uint16",
          "name": "fightwinCount",
          "type": "uint16"
        },
        {
          "internalType": "uint16",
          "name": "fightlossCount",
          "type": "uint16"
        },
        {
          "internalType": "uint16",
          "name": "fightCount",
          "type": "uint16"
        }
      ],
      "payable": false,
      "stateMutability": "view",
      "type": "function"
    },
    {
      "constant": false,
      "inputs": [
        {
          "internalType": "address",
          "name": "newOwner",
          "type": "address"
        }
      ],
      "name": "transferOwnership",
      "outputs": [],
      "payable": false,
      "stateMutability": "nonpayable",
      "type": "function"
    },
    {
      "constant": false,
      "inputs": [
        {
          "internalType": "address payable",
          "name": "_fund",
          "type": "address"
        }
      ],
      "name": "withdraw",
      "outputs": [],
      "payable": false,
      "stateMutability": "nonpayable",
      "type": "function"
    },
    {
      "constant": false,
      "inputs": [
        {
          "internalType": "uint256",
          "name": "_fee",
          "type": "uint256"
        }
      ],
      "name": "setLevelUpFee",
      "outputs": [],
      "payable": false,
      "stateMutability": "nonpayable",
      "type": "function"
    },
    {
      "constant": false,
      "inputs": [
        {
          "internalType": "uint256",
          "name": "_planeId",
          "type": "uint256"
        }
      ],
      "name": "levelUp",
      "outputs": [],
      "payable": true,
      "stateMutability": "payable",
      "type": "function"
    },
    {
      "constant": false,
      "inputs": [
        {
          "internalType": "uint256",
          "name": "_planeId",
          "type": "uint256"
        },
        {
          "internalType": "string",
          "name": "_newName",
          "type": "string"
        }
      ],
      "name": "changeName",
      "outputs": [],
      "payable": false,
      "stateMutability": "nonpayable",
      "type": "function"
    },
    {
      "constant": false,
      "inputs": [
        {
          "internalType": "uint256",
          "name": "_planeId",
          "type": "uint256"
        },
        {
          "internalType": "uint256",
          "name": "_newModel",
          "type": "uint256"
        }
      ],
      "name": "changeModel",
      "outputs": [],
      "payable": false,
      "stateMutability": "nonpayable",
      "type": "function"
    },
    {
      "constant": true,
      "inputs": [
        {
          "internalType": "address",
          "name": "_owner",
          "type": "address"
        }
      ],
      "name": "getPlanesByOwner",
      "outputs": [
        {
          "internalType": "uint256[]",
          "name": "",
          "type": "uint256[]"
        }
      ],
      "payable": false,
      "stateMutability": "view",
      "type": "function"
    }
  ],
  "bytecode": "0x60806040526010600155600154600a0a6002556201518060035566038d7ea4c68000600755336000806101000a81548173ffffffffffffffffffffffffffffffffffffffff021916908373ffffffffffffffffffffffffffffffffffffffff160217905550611536806100736000396000f3fe60806040526004361061009c5760003560e01c80638da5cb5b116100645780638da5cb5b1461039857806398e07760146103ef5780639f4583d214610434578063c39cbef1146104af578063ccf670f814610581578063f2fde38b146105bc5761009c565b80630ce90ec2146100a15780634fbfd07f146100cf57806351cff8d9146101d95780636a6e84cb1461022a5780637c98309a146102d0575b600080fd5b6100cd600480360360208110156100b757600080fd5b810190808035906020019092919050505061060d565b005b3480156100db57600080fd5b50610108600480360360208110156100f257600080fd5b8101908080359060200190929190505050610703565b60405180806020018881526020018761ffff1661ffff1681526020018663ffffffff1663ffffffff1681526020018561ffff1661ffff1681526020018461ffff1661ffff1681526020018361ffff1661ffff168152602001828103825289818151815260200191508051906020019080838360005b8381101561019857808201518184015260208101905061017d565b50505050905090810190601f1680156101c55780820380516001836020036101000a031916815260200191505b509850505050505050505060405180910390f35b3480156101e557600080fd5b50610228600480360360208110156101fc57600080fd5b81019080803573ffffffffffffffffffffffffffffffffffffffff169060200190929190505050610832565b005b34801561023657600080fd5b506102796004803603602081101561024d57600080fd5b81019080803573ffffffffffffffffffffffffffffffffffffffff1690602001909291905050506108d7565b6040518080602001828103825283818151815260200191508051906020019060200280838360005b838110156102bc5780820151818401526020810190506102a1565b505050509050019250505060405180910390f35b3480156102dc57600080fd5b50610396600480360360208110156102f357600080fd5b810190808035906020019064010000000081111561031057600080fd5b82018360208201111561032257600080fd5b8035906020019184600183028401116401000000008311171561034457600080fd5b91908080601f016020809104026020016040519081016040528093929190818152602001838380828437600081840152601f19601f820116905080830192505050505050509192919290505050610a04565b005b3480156103a457600080fd5b506103ad610abe565b604051808273ffffffffffffffffffffffffffffffffffffffff1673ffffffffffffffffffffffffffffffffffffffff16815260200191505060405180910390f35b3480156103fb57600080fd5b506104326004803603604081101561041257600080fd5b810190808035906020019092919080359060200190929190505050610ae3565b005b34801561044057600080fd5b5061046d6004803603602081101561045757600080fd5b8101908080359060200190929190505050610c6e565b604051808273ffffffffffffffffffffffffffffffffffffffff1673ffffffffffffffffffffffffffffffffffffffff16815260200191505060405180910390f35b3480156104bb57600080fd5b5061057f600480360360408110156104d257600080fd5b8101908080359060200190929190803590602001906401000000008111156104f957600080fd5b82018360208201111561050b57600080fd5b8035906020019184600183028401116401000000008311171561052d57600080fd5b91908080601f016020809104026020016040519081016040528093929190818152602001838380828437600081840152601f19601f820116905080830192505050505050509192919290505050610ca1565b005b34801561058d57600080fd5b506105ba600480360360208110156105a457600080fd5b8101908080359060200190929190505050610e3c565b005b3480156105c857600080fd5b5061060b600480360360208110156105df57600080fd5b81019080803573ffffffffffffffffffffffffffffffffffffffff169060200190929190505050610e9f565b005b6007543414610684576040517f08c379a000000000000000000000000000000000000000000000000000000000815260040180806020018281038252601c8152602001807f566f7573206e276176657a2070617320617373657a206465206665650000000081525060200191505060405180910390fd5b6106c860016004838154811061069657fe5b906000526020600020906003020160020160009054906101000a900461ffff1661ffff16610ff090919063ffffffff16565b600482815481106106d557fe5b906000526020600020906003020160020160006101000a81548161ffff021916908361ffff16021790555050565b6004818154811061071057fe5b9060005260206000209060030201600091509050806000018054600181600116156101000203166002900480601f0160208091040260200160405190810160405280929190818152602001828054600181600116156101000203166002900480156107bc5780601f10610791576101008083540402835291602001916107bc565b820191906000526020600020905b81548152906001019060200180831161079f57829003601f168201915b5050505050908060010154908060020160009054906101000a900461ffff16908060020160029054906101000a900463ffffffff16908060020160069054906101000a900461ffff16908060020160089054906101000a900461ffff169080600201600a9054906101000a900461ffff16905087565b6000809054906101000a900473ffffffffffffffffffffffffffffffffffffffff1673ffffffffffffffffffffffffffffffffffffffff163373ffffffffffffffffffffffffffffffffffffffff161461088b57600080fd5b8073ffffffffffffffffffffffffffffffffffffffff166108fc6008549081150290604051600060405180830381858888f193505050501580156108d3573d6000803e3d6000fd5b5050565b606080600660008473ffffffffffffffffffffffffffffffffffffffff1673ffffffffffffffffffffffffffffffffffffffff168152602001908152602001600020546040519080825280602002602001820160405280156109485781602001602082028038833980820191505090505b509050600080905060008090505b6004805490508110156109f9578473ffffffffffffffffffffffffffffffffffffffff166005600083815260200190815260200160002060009054906101000a900473ffffffffffffffffffffffffffffffffffffffff1673ffffffffffffffffffffffffffffffffffffffff1614156109ec57808383815181106109d757fe5b60200260200101818152505081806001019250505b8080600101915050610956565b508192505050919050565b6000600660003373ffffffffffffffffffffffffffffffffffffffff1673ffffffffffffffffffffffffffffffffffffffff1681526020019081526020016000205414610a94576040517f08c379a0000000000000000000000000000000000000000000000000000000008152600401808060200182810382526000815260200160200191505060405180910390fd5b6000610a9f82611014565b905060648181610aab57fe5b0681039050610aba82826110a2565b5050565b6000809054906101000a900473ffffffffffffffffffffffffffffffffffffffff1681565b600a828160048281548110610af457fe5b906000526020600020906003020160020160009054906101000a900461ffff1661ffff161015610b8c576040517f08c379a00000000000000000000000000000000000000000000000000000000081526004018080602001828103825260208152602001807f566f747265206e6976656175206e276573742070617320737566666973616e7481525060200191505060405180910390fd5b833373ffffffffffffffffffffffffffffffffffffffff166005600083815260200190815260200160002060009054906101000a900473ffffffffffffffffffffffffffffffffffffffff1673ffffffffffffffffffffffffffffffffffffffff1614610c44576040517f08c379a00000000000000000000000000000000000000000000000000000000081526004018080602001828103825260248152602001806114de6024913960400191505060405180910390fd5b8360048681548110610c5257fe5b9060005260206000209060030201600101819055505050505050565b60056020528060005260406000206000915054906101000a900473ffffffffffffffffffffffffffffffffffffffff1681565b6002828160048281548110610cb257fe5b906000526020600020906003020160020160009054906101000a900461ffff1661ffff161015610d4a576040517f08c379a00000000000000000000000000000000000000000000000000000000081526004018080602001828103825260208152602001807f566f747265206e6976656175206e276573742070617320737566666973616e7481525060200191505060405180910390fd5b833373ffffffffffffffffffffffffffffffffffffffff166005600083815260200190815260200160002060009054906101000a900473ffffffffffffffffffffffffffffffffffffffff1673ffffffffffffffffffffffffffffffffffffffff1614610e02576040517f08c379a00000000000000000000000000000000000000000000000000000000081526004018080602001828103825260248152602001806114de6024913960400191505060405180910390fd5b8360048681548110610e1057fe5b90600052602060002090600302016000019080519060200190610e349291906113b8565b505050505050565b6000809054906101000a900473ffffffffffffffffffffffffffffffffffffffff1673ffffffffffffffffffffffffffffffffffffffff163373ffffffffffffffffffffffffffffffffffffffff1614610e9557600080fd5b8060078190555050565b6000809054906101000a900473ffffffffffffffffffffffffffffffffffffffff1673ffffffffffffffffffffffffffffffffffffffff163373ffffffffffffffffffffffffffffffffffffffff1614610ef857600080fd5b600073ffffffffffffffffffffffffffffffffffffffff168173ffffffffffffffffffffffffffffffffffffffff161415610f3257600080fd5b8073ffffffffffffffffffffffffffffffffffffffff166000809054906101000a900473ffffffffffffffffffffffffffffffffffffffff1673ffffffffffffffffffffffffffffffffffffffff167f8be0079c531659141344cd1fd0a4f28419497f9722a3daafe3b4186f6b6457e060405160405180910390a3806000806101000a81548173ffffffffffffffffffffffffffffffffffffffff021916908373ffffffffffffffffffffffffffffffffffffffff16021790555050565b60008082840190508361ffff168161ffff16101561100a57fe5b8091505092915050565b600080826040516020018082805190602001908083835b6020831061104e578051825260208201915060208101905060208303925061102b565b6001836020036101000a0380198251168184511680821785525050505050509050019150506040516020818303038152906040528051906020012060001c9050600254818161109957fe5b06915050919050565b6000600160046040518060e00160405280868152602001858152602001600061ffff168152602001600354420163ffffffff168152602001600061ffff168152602001600061ffff168152602001600061ffff16815250908060018154018082558091505090600182039060005260206000209060030201600090919290919091506000820151816000019080519060200190611140929190611438565b506020820151816001015560408201518160020160006101000a81548161ffff021916908361ffff16021790555060608201518160020160026101000a81548163ffffffff021916908363ffffffff16021790555060808201518160020160066101000a81548161ffff021916908361ffff16021790555060a08201518160020160086101000a81548161ffff021916908361ffff16021790555060c082015181600201600a6101000a81548161ffff021916908361ffff1602179055505050039050336005600083815260200190815260200160002060006101000a81548173ffffffffffffffffffffffffffffffffffffffff021916908373ffffffffffffffffffffffffffffffffffffffff1602179055506112a86001600660003373ffffffffffffffffffffffffffffffffffffffff1673ffffffffffffffffffffffffffffffffffffffff1681526020019081526020016000205461139c90919063ffffffff16565b600660003373ffffffffffffffffffffffffffffffffffffffff1673ffffffffffffffffffffffffffffffffffffffff168152602001908152602001600020819055507fe0219661cea55309eeb7eed6a319955a1c1073b2aec26cba8acffadf12b9a6658184846040518084815260200180602001838152602001828103825284818151815260200191508051906020019080838360005b8381101561135b578082015181840152602081019050611340565b50505050905090810190601f1680156113885780820380516001836020036101000a031916815260200191505b5094505050505060405180910390a1505050565b6000808284019050838110156113ae57fe5b8091505092915050565b828054600181600116156101000203166002900490600052602060002090601f016020900481019282601f106113f957805160ff1916838001178555611427565b82800160010185558215611427579182015b8281111561142657825182559160200191906001019061140b565b5b50905061143491906114b8565b5090565b828054600181600116156101000203166002900490600052602060002090601f016020900481019282601f1061147957805160ff19168380011785556114a7565b828001600101855582156114a7579182015b828111156114a657825182559160200191906001019061148b565b5b5090506114b491906114b8565b5090565b6114da91905b808211156114d65760008160009055506001016114be565b5090565b9056fe4365747465206176696f6e206e6520766f75732061707061727469656e74207061732021a265627a7a723158202da2576acb4ccf158f53ecd8f1179663615760d1ec45841fdfa040066724626a64736f6c634300050c0032",
  "source": "pragma solidity ^0.5.11;\n\nimport \"./planefactory.sol\";\nimport \"./ownable.sol\";\n\ncontract PlaneHelper is PlaneFactory{\n    uint levelUpFee = 0.001 ether;\n    uint private _balance;\n\n  modifier aboveLevel(uint _level, uint _planeId) {\n    require(planes[_planeId].level >= _level, \"Votre niveau n'est pas suffisant\");\n    _;\n  }\n\n  function withdraw(address payable _fund) external onlyOwner {\n    _fund.transfer(_balance);\n  }\n\n  function setLevelUpFee(uint _fee) external onlyOwner {\n    levelUpFee = _fee;\n  }\n\n  function levelUp(uint _planeId) external payable {\n    require(msg.value == levelUpFee,\"Vous n'avez pas assez de fee\");\n    planes[_planeId].level = planes[_planeId].level.add(1);\n  }\n\n  function changeName(uint _planeId, string memory _newName) public aboveLevel(2, _planeId) ownerOnlyOf(_planeId) {\n    planes[_planeId].name = _newName;\n  }\n\n  function changeModel(uint _planeId, uint _newModel) external aboveLevel(10, _planeId) ownerOnlyOf(_planeId) {\n    planes[_planeId].model = _newModel;\n  }\n\n  function getPlanesByOwner(address _owner) external view returns(uint[] memory) {\n    uint[] memory result = new uint[](ownerPlaneCount[_owner]);\n    uint counter = 0;\n    for (uint i = 0; i < planes.length; i++) {\n      if (planeToOwner[i] == _owner) {\n        result[counter] = i;\n        counter++;\n      }\n    }\n    return result;\n  }\n}\n",
  "sourcePath": "/Users/bloumy/Desktop/Defi721/contracts/planehelper.sol",
  "compiler": {
    "name": "solc",
    "version": "0.5.12+commit.7709ece9.Emscripten.clang"
  },
  "schemaVersion": "3.0.19",
  "updatedAt": "2019-12-13T20:30:58.624Z",
  "devdoc": {
    "methods": {
      "transferOwnership(address)": {
        "details": "Allows the current owner to transfer control of the contract to a newOwner.",
        "params": {
          "newOwner": "The address to transfer ownership to."
        }
      }
    }
  },
  "userdoc": {
    "methods": {}
  }
}