{
  "contractName": "PlaneFuel",
  "abi": [
    {
      "anonymous": false,
      "inputs": [
        {
          "indexed": false,
          "internalType": "uint256",
          "name": "planeId",
          "type": "uint256"
        },
        {
          "indexed": false,
          "internalType": "string",
          "name": "name",
          "type": "string"
        },
        {
          "indexed": false,
          "internalType": "uint256",
          "name": "model",
          "type": "uint256"
        }
      ],
      "name": "NewPlane",
      "type": "event"
    },
    {
      "anonymous": false,
      "inputs": [
        {
          "indexed": true,
          "internalType": "address",
          "name": "previousOwner",
          "type": "address"
        },
        {
          "indexed": true,
          "internalType": "address",
          "name": "newOwner",
          "type": "address"
        }
      ],
      "name": "OwnershipTransferred",
      "type": "event"
    },
    {
      "constant": false,
      "inputs": [
        {
          "internalType": "string",
          "name": "_name",
          "type": "string"
        }
      ],
      "name": "createRandomPlane",
      "outputs": [],
      "payable": false,
      "stateMutability": "nonpayable",
      "type": "function"
    },
    {
      "constant": true,
      "inputs": [
        {
          "internalType": "address",
          "name": "_user",
          "type": "address"
        }
      ],
      "name": "getPlaneCount",
      "outputs": [
        {
          "internalType": "uint256",
          "name": "",
          "type": "uint256"
        }
      ],
      "payable": false,
      "stateMutability": "view",
      "type": "function"
    },
    {
      "constant": true,
      "inputs": [],
      "name": "owner",
      "outputs": [
        {
          "internalType": "address",
          "name": "",
          "type": "address"
        }
      ],
      "payable": false,
      "stateMutability": "view",
      "type": "function"
    },
    {
      "constant": true,
      "inputs": [
        {
          "internalType": "address",
          "name": "",
          "type": "address"
        }
      ],
      "name": "ownerPlaneCount",
      "outputs": [
        {
          "internalType": "uint256",
          "name": "",
          "type": "uint256"
        }
      ],
      "payable": false,
      "stateMutability": "view",
      "type": "function"
    },
    {
      "constant": true,
      "inputs": [
        {
          "internalType": "uint256",
          "name": "",
          "type": "uint256"
        }
      ],
      "name": "planeToOwner",
      "outputs": [
        {
          "internalType": "address",
          "name": "",
          "type": "address"
        }
      ],
      "payable": false,
      "stateMutability": "view",
      "type": "function"
    },
    {
      "constant": true,
      "inputs": [
        {
          "internalType": "uint256",
          "name": "",
          "type": "uint256"
        }
      ],
      "name": "planes",
      "outputs": [
        {
          "internalType": "string",
          "name": "name",
          "type": "string"
        },
        {
          "internalType": "uint256",
          "name": "model",
          "type": "uint256"
        },
        {
          "internalType": "uint16",
          "name": "level",
          "type": "uint16"
        },
        {
          "internalType": "uint32",
          "name": "readyTimeFuel",
          "type": "uint32"
        },
        {
          "internalType": "uint16",
          "name": "fightwinCount",
          "type": "uint16"
        },
        {
          "internalType": "uint16",
          "name": "fightlossCount",
          "type": "uint16"
        },
        {
          "internalType": "uint16",
          "name": "fightCount",
          "type": "uint16"
        }
      ],
      "payable": false,
      "stateMutability": "view",
      "type": "function"
    },
    {
      "constant": false,
      "inputs": [
        {
          "internalType": "address",
          "name": "newOwner",
          "type": "address"
        }
      ],
      "name": "transferOwnership",
      "outputs": [],
      "payable": false,
      "stateMutability": "nonpayable",
      "type": "function"
    },
    {
      "constant": false,
      "inputs": [
        {
          "internalType": "uint256",
          "name": "_planeId",
          "type": "uint256"
        }
      ],
      "name": "refuel",
      "outputs": [],
      "payable": true,
      "stateMutability": "payable",
      "type": "function"
    },
    {
      "constant": false,
      "inputs": [
        {
          "internalType": "uint256",
          "name": "_planeId",
          "type": "uint256"
        },
        {
          "internalType": "uint256",
          "name": "_targetModel",
          "type": "uint256"
        }
      ],
      "name": "repairAndBuild",
      "outputs": [],
      "payable": false,
      "stateMutability": "nonpayable",
      "type": "function"
    }
  ],
  "bytecode": "0x60806040526010600155662386f26fc100006002556201518060035567016345785d8a0000600755600080546001600160a01b03191633179055610ba8806100486000396000f3fe6080604052600436106100865760003560e01c80639f4583d2116100595780639f4583d214610296578063e156d353146102c0578063ee2e0ac8146102f3578063f012feb914610310578063f2fde38b1461034057610086565b8063036d8ebd1461008b5780634fbfd07f146100d05780637c98309a146101b05780638da5cb5b14610265575b600080fd5b34801561009757600080fd5b506100be600480360360208110156100ae57600080fd5b50356001600160a01b0316610373565b60408051918252519081900360200190f35b3480156100dc57600080fd5b506100fa600480360360208110156100f357600080fd5b503561038e565b60408051602080820189905261ffff8089169383019390935263ffffffff87166060830152858316608083015284831660a083015291831660c082015260e08082528951908201528851909182916101008301918b019080838360005b8381101561016f578181015183820152602001610157565b50505050905090810190601f16801561019c5780820380516001836020036101000a031916815260200191505b509850505050505050505060405180910390f35b3480156101bc57600080fd5b50610263600480360360208110156101d357600080fd5b8101906020810181356401000000008111156101ee57600080fd5b82018360208201111561020057600080fd5b8035906020019184600183028401116401000000008311171561022257600080fd5b91908080601f01602080910402602001604051908101604052809392919081815260200183838082843760009201919091525092955061047d945050505050565b005b34801561027157600080fd5b5061027a6104da565b604080516001600160a01b039092168252519081900360200190f35b3480156102a257600080fd5b5061027a600480360360208110156102b957600080fd5b50356104e9565b3480156102cc57600080fd5b506100be600480360360208110156102e357600080fd5b50356001600160a01b0316610504565b6102636004803603602081101561030957600080fd5b5035610516565b34801561031c57600080fd5b506102636004803603604081101561033357600080fd5b508035906020013561059b565b34801561034c57600080fd5b506102636004803603602081101561036357600080fd5b50356001600160a01b03166106b5565b6001600160a01b031660009081526006602052604090205490565b6004818154811061039b57fe5b60009182526020918290206003919091020180546040805160026001841615610100026000190190931692909204601f8101859004850283018501909152808252919350918391908301828280156104345780601f1061040957610100808354040283529160200191610434565b820191906000526020600020905b81548152906001019060200180831161041757829003601f168201915b50505050600183015460029093015491929161ffff808216925062010000820463ffffffff169166010000000000008104821691600160401b8204811691600160501b90041687565b33600090815260066020526040902054156104b9576040805162461bcd60e51b8152602060048201526000602482015290519081900360640190fd5b60006104c48261073a565b90506064810690036104d682826107c3565b5050565b6000546001600160a01b031681565b6005602052600090815260409020546001600160a01b031681565b60066020526000908152604090205481565b6007543410156105575760405162461bcd60e51b8152600401808060200182810382526028815260200180610b066028913960400191505060405180910390fd5b60035442016004828154811061056957fe5b906000526020600020906003020160020160026101000a81548163ffffffff021916908363ffffffff16021790555050565b60008281526005602052604090205482906001600160a01b031633146105f25760405162461bcd60e51b8152600401808060200182810382526024815260200180610b506024913960400191505060405180910390fd5b60006004848154811061060157fe5b9060005260206000209060030201905061061a81610a13565b6106555760405162461bcd60e51b8152600401808060200182810382526022815260200180610b2e6022913960400191505060405180910390fd5b600254838161066057fe5b06925060006002848360010154018161067557fe5b0490506106a56040518060400160405280600b81526020016a4e6f4e616d65506c616e6560a81b815250826107c3565b6106ae82610a2a565b5050505050565b6000546001600160a01b031633146106cc57600080fd5b6001600160a01b0381166106df57600080fd5b600080546040516001600160a01b03808516939216917f8be0079c531659141344cd1fd0a4f28419497f9722a3daafe3b4186f6b6457e091a3600080546001600160a01b0319166001600160a01b0392909216919091179055565b600080826040516020018082805190602001908083835b602083106107705780518252601f199092019160209182019101610751565b6001836020036101000a0380198251168184511680821785525050505050509050019150506040516020818303038152906040528051906020012060001c905060025481816107bb57fe5b069392505050565b6040805160e0810182528381526020808201849052600092820183905260038054420163ffffffff1660608401526080830184905260a0830184905260c08301849052600480546001808201808455928752855180519196939593947f8a35acfbc15ff81a39ae7d344fd709f28e8600b4aa8c65c6b64bfe7fe36bd19b93029290920192610855928492910190610a6a565b50602082810151600183810191909155604080850151600290940180546060870151608088015160a089015160c09099015161ffff1990931661ffff9889161765ffffffff000019166201000063ffffffff938416021767ffff00000000000019166601000000000000918916919091021769ffff00000000000000001916600160401b988816989098029790971761ffff60501b1916600160501b969091169590950294909417909355949093036000818152600585528281208054336001600160a01b031990911681179091558152600690945292205491935061093c9290610a5416565b60066000336001600160a01b03166001600160a01b03168152602001908152602001600020819055507fe0219661cea55309eeb7eed6a319955a1c1073b2aec26cba8acffadf12b9a6658184846040518084815260200180602001838152602001828103825284818151815260200191508051906020019080838360005b838110156109d25781810151838201526020016109ba565b50505050905090810190601f1680156109ff5780820380516001836020036101000a031916815260200191505b5094505050505060405180910390a1505050565b60020154426201000090910463ffffffff16101590565b60035442018160020160026101000a81548163ffffffff021916908363ffffffff16021790555050565b600082820183811015610a6357fe5b9392505050565b828054600181600116156101000203166002900490600052602060002090601f016020900481019282601f10610aab57805160ff1916838001178555610ad8565b82800160010185558215610ad8579182015b82811115610ad8578251825591602001919060010190610abd565b50610ae4929150610ae8565b5090565b610b0291905b80821115610ae45760008155600101610aee565b9056fe50617320617373657a20646520666f6e6420706f75722072656368617267657220656e206675656c566f747265206176696f6e206e276573742070617320656e636f7265207072c3aa744365747465206176696f6e206e6520766f75732061707061727469656e74207061732021a265627a7a72315820eb7928eee83a48f440690faa404ae18f7ca6927ff2d1cf675bc4cad3449c2f4f64736f6c634300050c0032",
  "source": "pragma solidity ^0.5.11;\n\nimport \"./planefactory.sol\";\n\ncontract PlaneFuel is PlaneFactory {\n\n    uint refuelFee = 0.1 ether;\n\n    function _triggerCooldown(Plane storage _plane) internal {\n        _plane.readyTimeFuel = uint32(block.timestamp + cooldownTime);\n    }\n\n    function _isReady(Plane storage _plane) internal view returns (bool) {\n      return (_plane.readyTimeFuel >= block.timestamp);\n    }\n\n    function refuel(uint _planeId)public payable{\n        require(msg.value >= refuelFee,\"Pas assez de fond pour recharger en fuel\");\n        planes[_planeId].readyTimeFuel = uint32(block.timestamp+ cooldownTime);\n    }\n\n    function repairAndBuild(uint _planeId, uint _targetModel) public ownerOnlyOf(_planeId) {\n        Plane storage myPlane = planes[_planeId];\n        require(_isReady(myPlane),\"Votre avion n'est pas encore prêt\");\n        _targetModel = _targetModel % modelModulus;\n        uint newModel = (myPlane.model + _targetModel) / 2;\n        _createPlane(\"NoNamePlane\", newModel);\n        _triggerCooldown(myPlane);\n    }\n\n}",
  "sourcePath": "/home/tonysepe/github/Defi721/contracts/planefuel.sol",
  "compiler": {
    "name": "solc",
    "version": "0.5.12+commit.7709ece9.Emscripten.clang"
  },
  "schemaVersion": "3.0.19",
  "updatedAt": "2019-12-14T16:42:48.933Z",
  "devdoc": {
    "methods": {
      "transferOwnership(address)": {
        "details": "Allows the current owner to transfer control of the contract to a newOwner.",
        "params": {
          "newOwner": "The address to transfer ownership to."
        }
      }
    }
  },
  "userdoc": {
    "methods": {}
  }
}