{
  "contractName": "PlaneAttack",
  "abi": [
    {
      "anonymous": false,
      "inputs": [
        {
          "indexed": false,
          "internalType": "uint256",
          "name": "planeId",
          "type": "uint256"
        },
        {
          "indexed": false,
          "internalType": "string",
          "name": "name",
          "type": "string"
        },
        {
          "indexed": false,
          "internalType": "uint256",
          "name": "model",
          "type": "uint256"
        }
      ],
      "name": "NewPlane",
      "type": "event"
    },
    {
      "anonymous": false,
      "inputs": [
        {
          "indexed": true,
          "internalType": "address",
          "name": "previousOwner",
          "type": "address"
        },
        {
          "indexed": true,
          "internalType": "address",
          "name": "newOwner",
          "type": "address"
        }
      ],
      "name": "OwnershipTransferred",
      "type": "event"
    },
    {
      "constant": false,
      "inputs": [
        {
          "internalType": "string",
          "name": "_name",
          "type": "string"
        }
      ],
      "name": "createRandomPlane",
      "outputs": [],
      "payable": false,
      "stateMutability": "nonpayable",
      "type": "function"
    },
    {
      "constant": true,
      "inputs": [
        {
          "internalType": "address",
          "name": "_user",
          "type": "address"
        }
      ],
      "name": "getPlaneCount",
      "outputs": [
        {
          "internalType": "uint256",
          "name": "",
          "type": "uint256"
        }
      ],
      "payable": false,
      "stateMutability": "view",
      "type": "function"
    },
    {
      "constant": true,
      "inputs": [],
      "name": "owner",
      "outputs": [
        {
          "internalType": "address",
          "name": "",
          "type": "address"
        }
      ],
      "payable": false,
      "stateMutability": "view",
      "type": "function"
    },
    {
      "constant": true,
      "inputs": [
        {
          "internalType": "address",
          "name": "",
          "type": "address"
        }
      ],
      "name": "ownerPlaneCount",
      "outputs": [
        {
          "internalType": "uint256",
          "name": "",
          "type": "uint256"
        }
      ],
      "payable": false,
      "stateMutability": "view",
      "type": "function"
    },
    {
      "constant": true,
      "inputs": [
        {
          "internalType": "uint256",
          "name": "",
          "type": "uint256"
        }
      ],
      "name": "planeToOwner",
      "outputs": [
        {
          "internalType": "address",
          "name": "",
          "type": "address"
        }
      ],
      "payable": false,
      "stateMutability": "view",
      "type": "function"
    },
    {
      "constant": true,
      "inputs": [
        {
          "internalType": "uint256",
          "name": "",
          "type": "uint256"
        }
      ],
      "name": "planes",
      "outputs": [
        {
          "internalType": "string",
          "name": "name",
          "type": "string"
        },
        {
          "internalType": "uint256",
          "name": "model",
          "type": "uint256"
        },
        {
          "internalType": "uint16",
          "name": "level",
          "type": "uint16"
        },
        {
          "internalType": "uint32",
          "name": "readyTimeFuel",
          "type": "uint32"
        },
        {
          "internalType": "uint16",
          "name": "fightwinCount",
          "type": "uint16"
        },
        {
          "internalType": "uint16",
          "name": "fightlossCount",
          "type": "uint16"
        },
        {
          "internalType": "uint16",
          "name": "fightCount",
          "type": "uint16"
        }
      ],
      "payable": false,
      "stateMutability": "view",
      "type": "function"
    },
    {
      "constant": false,
      "inputs": [
        {
          "internalType": "uint256",
          "name": "_planeId",
          "type": "uint256"
        }
      ],
      "name": "refuel",
      "outputs": [],
      "payable": true,
      "stateMutability": "payable",
      "type": "function"
    },
    {
      "constant": false,
      "inputs": [
        {
          "internalType": "uint256",
          "name": "_planeId",
          "type": "uint256"
        },
        {
          "internalType": "uint256",
          "name": "_targetModel",
          "type": "uint256"
        }
      ],
      "name": "repairAndBuild",
      "outputs": [],
      "payable": false,
      "stateMutability": "nonpayable",
      "type": "function"
    },
    {
      "constant": false,
      "inputs": [
        {
          "internalType": "address",
          "name": "newOwner",
          "type": "address"
        }
      ],
      "name": "transferOwnership",
      "outputs": [],
      "payable": false,
      "stateMutability": "nonpayable",
      "type": "function"
    },
    {
      "constant": false,
      "inputs": [
        {
          "internalType": "uint256",
          "name": "_planeId",
          "type": "uint256"
        },
        {
          "internalType": "uint256",
          "name": "_targetId",
          "type": "uint256"
        }
      ],
      "name": "attack",
      "outputs": [],
      "payable": false,
      "stateMutability": "nonpayable",
      "type": "function"
    }
  ],
  "bytecode": "0x60806040526010600155662386f26fc100006002556201518060035567016345785d8a000060075560006008819055603c60095580546001600160a01b03191633179055610db0806100526000396000f3fe6080604052600436106100915760003560e01c8063e156d35311610059578063e156d353146102cb578063e1fa7638146102fe578063ee2e0ac81461032e578063f012feb91461034b578063f2fde38b1461037b57610091565b8063036d8ebd146100965780634fbfd07f146100db5780637c98309a146101bb5780638da5cb5b146102705780639f4583d2146102a1575b600080fd5b3480156100a257600080fd5b506100c9600480360360208110156100b957600080fd5b50356001600160a01b03166103ae565b60408051918252519081900360200190f35b3480156100e757600080fd5b50610105600480360360208110156100fe57600080fd5b50356103c9565b60408051602080820189905261ffff8089169383019390935263ffffffff87166060830152858316608083015284831660a083015291831660c082015260e08082528951908201528851909182916101008301918b019080838360005b8381101561017a578181015183820152602001610162565b50505050905090810190601f1680156101a75780820380516001836020036101000a031916815260200191505b509850505050505050505060405180910390f35b3480156101c757600080fd5b5061026e600480360360208110156101de57600080fd5b8101906020810181356401000000008111156101f957600080fd5b82018360208201111561020b57600080fd5b8035906020019184600183028401116401000000008311171561022d57600080fd5b91908080601f0160208091040260200160405190810160405280939291908181526020018383808284376000920191909152509295506104b5945050505050565b005b34801561027c57600080fd5b50610285610512565b604080516001600160a01b039092168252519081900360200190f35b3480156102ad57600080fd5b50610285600480360360208110156102c457600080fd5b5035610521565b3480156102d757600080fd5b506100c9600480360360208110156102ee57600080fd5b50356001600160a01b031661053c565b34801561030a57600080fd5b5061026e6004803603604081101561032157600080fd5b508035906020013561054e565b61026e6004803603602081101561034457600080fd5b50356106d5565b34801561035757600080fd5b5061026e6004803603604081101561036e57600080fd5b508035906020013561075a565b34801561038757600080fd5b5061026e6004803603602081101561039e57600080fd5b50356001600160a01b0316610874565b6001600160a01b031660009081526006602052604090205490565b600481815481106103d657fe5b60009182526020918290206003919091020180546040805160026001841615610100026000190190931692909204601f81018590048502830185019091528082529193509183919083018282801561046f5780601f106104445761010080835404028352916020019161046f565b820191906000526020600020905b81548152906001019060200180831161045257829003601f168201915b50505050600183015460029093015491929161ffff808216925062010000820463ffffffff1691600160301b8104821691600160401b8204811691600160501b90041687565b33600090815260066020526040902054156104f1576040805162461bcd60e51b8152602060048201526000602482015290519081900360640190fd5b60006104fc826108f9565b905060648106900361050e8282610982565b5050565b6000546001600160a01b031681565b6005602052600090815260409020546001600160a01b031681565b60066020526000908152604090205481565b60008281526005602052604090205482906001600160a01b031633146105a55760405162461bcd60e51b8152600401808060200182810382526024815260200180610d586024913960400191505060405180910390fd5b6000600484815481106105b457fe5b906000526020600020906003020190506000600484815481106105d357fe5b9060005260206000209060030201905060006105ef6064610bc7565b905060095481116106705760028084018054600161ffff600160301b8084048216830182160261ffff60301b19909316929092178083168201831661ffff19909116179092559184018054600160401b8082048516840190941690930261ffff60401b199093169290921790915582015461066b90879061075a565b6106cd565b60028084018054600161ffff600160401b8084048216830182160261ffff60401b19909316929092179092559184018054600160301b808204851690930190931690910261ffff60301b199092169190911790556106cd83610c1b565b505050505050565b6007543410156107165760405162461bcd60e51b8152600401808060200182810382526028815260200180610d0e6028913960400191505060405180910390fd5b60035442016004828154811061072857fe5b906000526020600020906003020160020160026101000a81548163ffffffff021916908363ffffffff16021790555050565b60008281526005602052604090205482906001600160a01b031633146107b15760405162461bcd60e51b8152600401808060200182810382526024815260200180610d586024913960400191505060405180910390fd5b6000600484815481106107c057fe5b906000526020600020906003020190506107d981610c45565b6108145760405162461bcd60e51b8152600401808060200182810382526022815260200180610d366022913960400191505060405180910390fd5b600254838161081f57fe5b06925060006002848360010154018161083457fe5b0490506108646040518060400160405280600b81526020016a4e6f4e616d65506c616e6560a81b81525082610982565b61086d82610c1b565b5050505050565b6000546001600160a01b0316331461088b57600080fd5b6001600160a01b03811661089e57600080fd5b600080546040516001600160a01b03808516939216917f8be0079c531659141344cd1fd0a4f28419497f9722a3daafe3b4186f6b6457e091a3600080546001600160a01b0319166001600160a01b0392909216919091179055565b600080826040516020018082805190602001908083835b6020831061092f5780518252601f199092019160209182019101610910565b6001836020036101000a0380198251168184511680821785525050505050509050019150506040516020818303038152906040528051906020012060001c9050600254818161097a57fe5b069392505050565b6040805160e0810182528381526020808201849052600092820183905260038054420163ffffffff1660608401526080830184905260a0830184905260c08301849052600480546001808201808455928752855180519196939593947f8a35acfbc15ff81a39ae7d344fd709f28e8600b4aa8c65c6b64bfe7fe36bd19b93029290920192610a14928492910190610c72565b50602082810151600183810191909155604080850151600290940180546060870151608088015160a089015160c09099015161ffff1990931661ffff9889161765ffffffff000019166201000063ffffffff938416021761ffff60301b1916600160301b918916919091021761ffff60401b1916600160401b988816989098029790971761ffff60501b1916600160501b969091169590950294909417909355949093036000818152600585528281208054336001600160a01b0319909116811790915581526006909452922054919350610af09290610c5c16565b60066000336001600160a01b03166001600160a01b03168152602001908152602001600020819055507fe0219661cea55309eeb7eed6a319955a1c1073b2aec26cba8acffadf12b9a6658184846040518084815260200180602001838152602001828103825284818151815260200191508051906020019080838360005b83811015610b86578181015183820152602001610b6e565b50505050905090810190601f168015610bb35780820380516001836020036101000a031916815260200191505b5094505050505060405180910390a1505050565b600880546001019081905560408051426020808301919091523360601b828401526054808301949094528251808303909401845260749091019091528151910120600090829081610c1457fe5b0692915050565b60035442018160020160026101000a81548163ffffffff021916908363ffffffff16021790555050565b60020154426201000090910463ffffffff16101590565b600082820183811015610c6b57fe5b9392505050565b828054600181600116156101000203166002900490600052602060002090601f016020900481019282601f10610cb357805160ff1916838001178555610ce0565b82800160010185558215610ce0579182015b82811115610ce0578251825591602001919060010190610cc5565b50610cec929150610cf0565b5090565b610d0a91905b80821115610cec5760008155600101610cf6565b9056fe50617320617373657a20646520666f6e6420706f75722072656368617267657220656e206675656c566f747265206176696f6e206e276573742070617320656e636f7265207072c3aa744365747465206176696f6e206e6520766f75732061707061727469656e74207061732021a265627a7a72315820a70f5a7415fb3167c270d1b7442241ca58968d5c40e5ccf850d31f44a0fb8f0864736f6c634300050c0032",
  "source": "pragma solidity ^0.5.11;\n\nimport \"./planefactory.sol\";\nimport \"./planefuel.sol\";\n\ncontract PlaneAttack is PlaneFactory, PlaneFuel{\n\n    uint randNonce = 0;\n    uint attackVictoryProbability = 60;\n\n  function randMod(uint _modulus) internal returns(uint) {\n    randNonce++;\n    return uint(keccak256(abi.encodePacked(now,msg.sender,randNonce))) % _modulus;\n  }\n\n  function attack(uint _planeId, uint _targetId) external ownerOnlyOf(_planeId) {\n    Plane storage myPlane = planes[_planeId];\n    Plane storage enemyPlane = planes[_targetId];\n    uint rand = randMod(100);\n    if (rand <= attackVictoryProbability) {\n      myPlane.fightwinCount++;\n      myPlane.level++;\n      enemyPlane.fightlossCount++;\n      repairAndBuild(_planeId, enemyPlane.model);\n    } else {\n      myPlane.fightlossCount++;\n      enemyPlane.fightwinCount++;\n      _triggerCooldown(myPlane);\n    }\n  }\n}\n",
  "sourcePath": "/Users/bloumy/Desktop/Defi721/contracts/planeattack.sol",
  "compiler": {
    "name": "solc",
    "version": "0.5.12+commit.7709ece9.Emscripten.clang"
  },
  "schemaVersion": "3.0.19",
  "updatedAt": "2019-12-14T16:30:03.543Z",
  "devdoc": {
    "methods": {
      "transferOwnership(address)": {
        "details": "Allows the current owner to transfer control of the contract to a newOwner.",
        "params": {
          "newOwner": "The address to transfer ownership to."
        }
      }
    }
  },
  "userdoc": {
    "methods": {}
  }
}